:020000040800F2
:1000000048080020A1010008BB2800088925000835
:10001000B928000885120008F12D00080000000032
:10002000000000000000000000000000BF280008E1
:10003000D912000800000000BD280008C1280008EF
:10004000BB010008BB010008BB010008BB010008A0
:10005000BB010008BB010008BB010008BB01000890
:10006000BB010008BB010008BB010008BB01000880
:10007000BB010008BB010008BB010008BB01000870
:10008000BB010008BB010008BB010008BB01000860
:10009000BB010008BB010008BB010008BB01000850
:1000A000BB010008BB010008BB010008BB01000840
:1000B000BB010008BB010008BB010008BB01000830
:1000C000BB010008BB010008BB010008BB01000820
:1000D000BB010008E52D0008BB010008BB010008BA
:1000E000BB010008BB010008BB01000800F002F8DA
:1000F00000F047F80AA090E8000C82448344AAF17B
:100100000107DA4501D100F03CF8AFF2090EBAE878
:100110000F0013F0010F18BFFB1A43F0010318473B
:10012000383A0000583A0000103A24BF78C878C125
:10013000FAD8520724BF30C830C144BF04680C60ED
:10014000704700000023002400250026103A28BF35
:1001500078C1FBD8520728BF30C148BF0B60704739
:10016000662903F09784002070471FB500F04AFB12
:1001700004000020002103F059F8E0601FBD10B515
:1001800010BD00F03BFC1146FFF7EFFF02F0F0FF5F
:1001900000F059FC03B4FFF7F2FF03BC00F09CFC35
:1001A0000948804709480047FEE7FEE7FEE7FEE70B
:1001B000FEE7FEE7FEE7FEE7FEE7FEE70448054947
:1001C000054A064B7047000023290008ED0000088F
:1001D000480200204808002048040020480400206D
:1001E0000FB41CB5074B06AA7B44694600900598DE
:1001F00000F0EFFA0020694600F0FEFA1CBC5DF842
:1002000014FB00000D0600002DE9F0474FF0000A36
:1002100089460446C0F820A02046E16888470028A7
:1002200076D0252806D0D4E901219047206A401CC9
:100230002062F1E7E168204600258847C4F81CA049
:1002400006460027C4F818A02A2E09D0304602F02E
:10025000F4FD38B304EB8708303EC8F8186019E0A5
:1002600059F8041B204604EB87029161E168884736
:10027000012F064618D1E069002820DA25F0200574
:100280001DE0D8F8180000EB800006EB4000303885
:10029000C8F818002046E1688847064602F0CDFD00
:1002A0000028EED1012F0AD02E2E08D12046E16879
:1002B00088477F1C0646022F45F02005C4DBA06955
:1002C000002803DA404245F00105A061E80701D0AB
:1002D00025F01005B6B1A6F14100192802D8203644
:1002E00045F400654A463146204625604D46FFF7F5
:1002F00037FF58B1012806D0ED1D25F0070000F1A9
:10030000080989E704E005F1040985E730468AE732
:10031000206ABDE8F0874FF000020429C0F0128087
:1003200010F0030C00F01B80CCF1040CBCF1020FA8
:1003300018BF00F8012BA8BF20F8022BA1EB0C017D
:1003400000F00DB85FEAC17C24BF00F8012B00F873
:10035000012B48BF00F8012B70474FF0000200B599
:10036000134694469646203922BFA0E80C50A0E8D8
:100370000C50B1F12001BFF4F7AF090728BFA0E886
:100380000C5048BF0CC05DF804EB890028BF40F852
:10039000042B08BF704748BF20F8022B11F0804F94
:1003A00018BF00F8012B70477047704770477047BF
:1003B0002DE9FF4F0C461E464FF0FF378BB0D2E9B8
:1003C0000001DDF860800A908A46C1F30A5505B93C
:1003D0003D46002108464FF00000BAF1000F00F43E
:1003E000400005DA00EB80004FF4400101EA5000C4
:1003F0004FEA9059B9F1010F00DDB9460A9850EA69
:100400004A000ED044F61050A5F2FF3545432F1494
:10041000B8F1000F1ED07542291E1EDDC9F1000281
:100420001CE0B8F1010F4FF0000001D0302103E0D3
:10043000F24305E02154401CB042FBDB3046002271
:10044000002121540B99C1F80880C1E900200FB0A8
:10045000BDE8F08FBD1B6D1CDEE74A4600DA69423D
:1004600006A800F059FA06AB93E8070003AB83E84F
:10047000070050460A9900F036FB8DE80700A0F50A
:1004800000501F3800900398002D09DD42F21F0133
:100490004A46084403A90390684600F095FD08E029
:1004A000A0F500504A461F3803A90390684600F0A3
:1004B0009FFD8DE807000004000C03D04FF0FF30D3
:1004C000410800E01046B8F1000F03D0002200926E
:1004D00015461EE0751E05D400F098F930326255BD
:1004E0006D1EF9D5B3460122084302D000227F1CBD
:1004F00004E02078302801D100227F1E002A0997CD
:1005000086D01DE0112D07DA00F080F930326255F7
:100510006D1C50EA0102F5D1084302D00098C8B121
:100520000EE00021681E05E0235C625C63542254E7
:10053000401E491C8142F7DBAB46A81B401E0990B8
:10054000002004F80B000B98099AC0F80880C0E955
:10055000002B7CE711264FF0000859E72DE9F04FFA
:1005600088460446D21D22F0070191B0D1E900016E
:10057000CDE90A0102F03DFC02460B98C00F01D004
:100580002D2007E02068810701D52B2002E02021E3
:1005900001EAC000032A099001D0072A05DB0346BF
:1005A0004146204600F078F90BE12078800601D51D
:1005B000E06900E00620B8F1650F814606D0B8F189
:1005C000660F18D0B8F1670F70D131E00020B9F193
:1005D000110F009001DB112301E009F101030AAAC8
:1005E00001A90CA8FFF7E4FEDDE90C70002609F173
:1005F0000105834647E001204B4600904FF000473D
:100600000AAA01A90CA8FFF7D3FEDDE90DB00C99E9
:100610005D46002610B909F101000D18B9EB05007F
:1006200003D4C0F1FF3609F10105A5EB09002BE069
:10063000B9F1010F01DA4FF001090020B9F1110FF2
:100640000090484601DD112300E003460AAA01A9F3
:100650000CA8FFF7ADFEDDE90C704D460026834681
:10066000207800070AD4AB4500DA5D4601A8012DC9
:1006700004DD411911F8011C302907D04F4502DA79
:1006800017F1040F04DA012082460FE06D1EEEE739
:10069000002F02DCED1B3E4403E0781CA84200DD85
:1006A0007D1CB81B00F1010A4FF0004720780007BD
:1006B00003D4AA4501DB4FF0FF3A0021B7F1004F08
:1006C0000DF143088DF8431024D002202B23002F76
:1006D00001DA7F422D230A21021EA0F1010000DC75
:1006E0005FB197FBF1FC97FBF1F201FB1C7C174615
:1006F0000CF1300C08F801CDEEE7A8F10100037011
:100700002188090501D5452100E06521A0F10108F6
:1007100000F8011C09980FA9A1EB0807FF1D00B103
:100720000120411901EBEA70A1693844081A401E02
:10073000A0612078C00602D42046AFF3008009985B
:1007400028B1D4E901219047206A401C206220781A
:10075000C00622D52046AFF300801EE0002E04DB49
:10076000B34502DD01A8805D00E03020D4E901211D
:100770009047206A401C2062761CAAF101005FEAC3
:10078000000A0AD100F03EF8C0680168405CD4E974
:1007900001219047206A401C2062281EA5F1010516
:1007A000DCDC07E0D4E9012118F8010B9047206A4E
:1007B000401C2062381EA7F10107F3DC2046AFF38E
:1007C0000080032011B043E601694A1C02610878E9
:1007D000704700B58FB0CDE9013100210591054981
:1007E0007944CDE9031011466846FFF70DFD0FB0BF
:1007F00000BD0000E5FFFFFF0A6802F8010B0A6078
:1008000070470000004870470402002030B5B0F186
:100810000A024FEA900E71F100034EEA817EB0EBBE
:100820000E0061EB91014FEA101E4EEA017E10EBC3
:100830000E0041EB11114FEA102E4EEA016E10EB43
:100840000E0041EB11214FEA104E4EEA014E10EB23
:100850000E0041EB1141401841F100014FEAD00078
:1008600040EA41704FEAD10110EB80054FEA810464
:1008700044EA907444EB01046D1944EB0404521BE8
:10088000A3414FF0000348BF0A3200D530BD401CE1
:1008900041F1000130BD00002DE9F0411F46044642
:1008A00003260168072A01F4006004DB08B116A5DD
:1008B00005E016A503E008B115A500E015A521F097
:1008C00010002060A069C01EA0610FB1401EA06191
:1008D0002046AFF300804FB1D4E90121384690475C
:1008E000206A401C2062C01C206206E0206AFAE7F1
:1008F000D4E9012115F8010B9047761EF8D2204665
:10090000AFF30080BDE8F0814E414E006E616E0095
:10091000494E4600696E66002DE9F047814616464D
:100920008AB0334878440DC88DE80D0030487844CB
:10093000801C03AC0DC884E80D0041F69B300844D0
:10094000372190FBF1F290FBF1F5A5F1800501FB59
:1009500012041B3C02D56442012000E00020DFF8B5
:1009600090A080460027FA44AAF1BE0A0DE0E007F5
:1009700009D03246684607EB47010AEB810100F0D7
:1009800037FB8DE8070064107F1C002CEFD1184F57
:100990007F44AC3F18E0E80714D007EB04100DF1DA
:1009A000180A90E80E008AE80E00C068F04201D1F3
:1009B00098190890324606A903A800F019FB03AB6A
:1009C00083E807006D10641C002DE4D132466946AF
:1009D000B8F1000F03A802D000F0F6FA01E000F031
:1009E00007FBC9E90001C9F808200AB0BDE8F08793
:1009F0001832000000487047E40100207546FFF7F8
:100A0000F9FFAE4605006946534620F007008546CB
:100A100018B020B5FFF7D2FBBDE820404FF000062C
:100A20004FF000074FF000084FF0000B21F00701D6
:100A3000AC46ACE8C009ACE8C009ACE8C009ACE819
:100A4000C0098D46704710B50446AFF300802046BC
:100A5000BDE81040FFF79EBB4FF0013C50F8042B5F
:100A600051F8043B9A4221D1A2EB0C03934313EAC1
:100A7000CC1317D150F8042B51F8043B9A4215D1EE
:100A8000A2EB0C03934313EACC130BD150F8042BC5
:100A900051F8043B9A4209D1A2EB0C03934313EAA9
:100AA000CC13DBD04FF00000704700BFD01A01BA62
:100AB000B1FA81F101F0180122FA01F0CB40C1F145
:100AC0002001DBB2C0B2C01A2CFA01F3D11A914353
:100AD00011EAC311E6D1704701491820ABBEFEE709
:100AE0002600020070475FEA400C08BF91F0000F3B
:100AF0004FEA8C234FEAC12243EA51514FEA1C507E
:100B000018BF00F5F0404FEA300018BF41F0004137
:100B10005FEA6C5C00F02980BCF1FF3F08BF40F049
:100B200080407047130C06BF12044FF0100C4FF0BA
:100B3000000C130E04BF12020CF1080C130F04BFBB
:100B400012010CF1040C930F04BF92000CF1020C83
:100B5000D30F04BF52000CF1010C11464FF00002FC
:100B6000A0F11F00A0EB0C00704711F0004F08BF70
:100B7000704731F000413FF4D5AF0B0C06BF0904BC
:100B80004FF0100C4FF0000C0B0E04BF09020CF1DB
:100B9000080C0B0F04BF09010CF1040C8B0F04BFF0
:100BA00089000CF1020CCB0F04BF49000CF1010CC1
:100BB000CCF12003A0EB0C0022FA03F302FA0CF2B2
:100BC00041EA030100F10100704720F07F4C80EA08
:100BD000030023F07F47ACEB070303F57C5300F0E1
:100BE000004003F1FF032DE980494FEA154B09B49A
:100BF0004FEA144325EA0B4E24EA03480FF2042679
:100C000006EB132749083E785FEA320203FB0667CA
:100C1000C7F5000707FB06F64FEA54374FEAD646FA
:100C200006F1020607FB066CCCF1005C4FEA1C479C
:100C30002CEA074C07FB06F40CFB06F504EB154603
:100C40004FEA961634BF00204FF000404FEAD137EC
:100C500006FB07FC4FEA1C4C0CFB0BF7D21B03FBFB
:100C60000CF761EB07010CFB0EF7B0EB074072EBE2
:100C700017420CFB08F734BFA2EB0742B2EB074266
:100C800061EB17414FEA0C444FEA910706FB07FC62
:100C90004FEA1C4C0CFB0BF7B0EBC74072EB573222
:100CA00003FB0CF734BFA2EBC742B2EBC74261EBC8
:100CB00057310CFB0EF7B0EBC70072EB57720CFB11
:100CC00008F734BFA2EBC702B2EBC70261EB577162
:100CD000039F4FEA816141EA921104EBCC044FEA91
:100CE000D1374FEA826206FB07FC42EA90124FEAD4
:100CF00080604FEA1C4C0CFB0BF7D21B03FB0CF77C
:100D000061EB07010CFB0EF7B0EB074072EB1742EB
:100D10000CFB08F734BFA2EB0742B2EB074261EBD2
:100D200017414FEA8C554FEA910704EB9C2406FBD0
:100D300007FC4FEA1C4C0CFB0BF7B0EBC74072EB07
:100D4000573203FB0CF734BFA2EBC742B2EBC742EA
:100D500061EB57310CFB0EF7B0EBC70072EB57722B
:100D60000CFB08F734BFA2EBC702B2EBC70261EB82
:100D7000577115EB4C254FEA816141EA92114FEA18
:100D800082624FEAD13742EA901206FB07FC44F137
:100D900000044FEA80604FEA1C4C0CFB0BF7D21B9F
:100DA00003FB0CF761EB07010CFB0EF7B0EB074000
:100DB00072EB17420CFB08F734BFA2EB0742B2EB11
:100DC000074261EB174115EB1C154FEA813141EAEF
:100DD00092414FEA823242EA90424FEA80304FEA33
:100DE0000C7644F1000448EA03434EEA0B484FF006
:100DF000000EB2EB080C71EB030724BF62463946C4
:100E00004EEB0E0E4FF0000B0018524149414BEBD8
:100E10000B0BB2EB080C71EB03077BF1000B24BF4B
:100E2000624639464EEB0E0E4FF0000B0018524151
:100E300049414BEB0B0BB2EB080C71EB03077BF159
:100E4000000B24BF624639464EEB0E0E51EA0207F4
:100E500018BF46F0010616EB0E7655F1000254F16C
:100E6000000103D5BDE88901BDE80088BDE889011E
:100E7000BDE80048B619524141EB0101A3F101035D
:100E8000704780807F7E7D7C7B7A797877767675F7
:100E90007473727171706F6E6E6D6C6C6B6A6A696F
:100EA0006868676666656464636362616160605F09
:100EB0005F5E5E5D5D5C5C5B5B5A5A595958585782
:100EC00057565655555554545353525252515150EA
:100ED00050504F4F4F4E4E4D4D4D4C4C4C4B4B4B3D
:100EE0004A4A4A4949494848484747474746464683
:100EF00045454544444444434343434242424241BE
:100F00004141002B26D4770021D01CB54FEA37078A
:100F100003B44FF010004FF010014FF000000FBC71
:100F2000BDE810400BF1010BBBF1010F08BF5FEAF8
:100F3000170722BF12F1010211F101014FF0004128
:100F400043F1000300F0004043EA00007047F9D38A
:100F50005708DAE746EA064613F1400F4FEA16460D
:100F60001FDD13F1200FDFBF16430A460021203397
:100F70005B42C8D0C3F1200746EA064602FA07F7EB
:100F80004FEA164646EA0706C3F1200722FA03F2A3
:100F900001FA07F721FA03F14FF0000342EA0702D2
:100FA000B1E746EA020646EA06464FEA164646EA30
:100FB0000106BCBF46EA0646360C4FF000034FF070
:100FC00000024FF000019EE72DE9C048934630B47F
:100FD00091E8380007C831EA400C48BF34EA430CB6
:100FE00003D5FFF7F2FDFFF78CFFF0BCBDE80088EA
:100FF0002DE9C048934630B491E8380007C810F096
:10100000804F08BF13F0804F03D100F005F8FFF7C1
:1010100078FFF0BCBDE8008820F07F4780EA03003D
:1010200023F07F4C07EB0C03A3F57C5300F000404A
:10103000A3F1FE0392F0000F00F0B38095F0000FD3
:1010400000F077802DE901494FEA11404FEA14463C
:1010500021EA004800FB06FC24EA064708FB06F6E6
:1010600007FB08F800FB07F718EB06484CEB164C9B
:101070004FEA124B18EB07484FEA15464CEB174066
:1010800022EA0B4E0BFB06FC25EA06470EFB06F692
:1010900007FB0EFE0BFB07F71EEB064E4CEB164C48
:1010A0004FF000061EEB074E4CEB174B18EB0B08EE
:1010B00040F1000018EB0E0B58EB000840F1000067
:1010C0008F1A4FF000013CBFC943661B14BFB5EB3C
:1010D000040C00213CBFC943F61B4FEA17444EEAFB
:1010E0008E0E27EA04454FEA1C4704FB07622CEAF0
:1010F000074C05FB07F70CFB05F604FB0CFC16EB95
:10110000074642EB174216EB0C4642EB1C421BEB28
:10111000060658EB0202414146EA9E0601D5BDE8AB
:101120000189B619524141EB0101A3F10103BDE868
:1011300001894FEA14454FEA114724EA054621EA9E
:10114000074C05FB07F406FB07F70CFB06F105FB54
:101150000CFC11EB074144EB17444FEA124711EB2B
:101160000C4144EB1C4422EA074C05FB07F206FB4A
:1011700007F70CFB06F605FB0CFC16EB074642EBEB
:10118000174216EB0C4642EB1C456A1854F100015D
:1011900048BF7047B619524141EB0101A3F1010369
:1011A000704795F0000F37D04FEA11424FEA1447CD
:1011B00021EA024624EA074C02FB07F106FB07F787
:1011C0000CFB06F402FB0CFC14EB074441EB17414B
:1011D0004FEA154714EB0C4441EB1C4125EA074C40
:1011E00002FB07F506FB07F70CFB06F602FB0CFCFF
:1011F00016EB074645EB174516EB0C4645EB1C4234
:10120000121951F1000148BF7047B619524141EB24
:101210000101A3F1010370474FEA14454FEA11475A
:1012200024EA054621EA074C05FB07F106FB07F710
:101230000CFB06F24FF0000605FB0CFC12EB07421C
:1012400041EB174112EB0C4251EB1C4148BF704778
:10125000921841EB0101A3F10103704710B5002181
:10126000074800F0D1FE0421054800F0CDFE002023
:1012700001F062FFBDE81040002001F06BBF0000EC
:1012800034000020FEE7000010B50021104800F0F7
:10129000BBFE04210E4800F0B7FE08210C4800F008
:1012A000B3FE0C210A4800F0AFFE0021094800F00F
:1012B000ABFE0421074800F0A7FE0821054800F016
:1012C000A3FEBDE810400C21024800F09DBE0000C6
:1012D0007C000020C4000020704772B6FEE70000CA
:1012E00003490A685063096800208863704700005A
:1012F000C4000020034900220B685A630968886310
:1013000070470000C400002003490A68D0630968E0
:101310000020086470470000C40000200349002238
:101320000B68DA630968086470470000C400002095
:1013300010B590F821100022022905D00421816304
:1013400080F82020012010BD01680B6823F00E03F7
:101350000B6001680B6823F001030B6090F84030CC
:10136000C46B012101FA03F3636080F8211080F857
:101370002020104610BD000010B590F82110002468
:10138000022903D00421816301243DE001680A6839
:1013900022F00E020A6001680A6822F001020A6067
:1013A0001A4A0168914201D1012121E0174A143201
:1013B000914201D110211BE0144A2832914201D1FF
:1013C000891515E0114A3C32914201D189140FE090
:1013D0000E4A5032914202D14FF4803108E00B4A5C
:1013E0006432914202D14FF4801101E04FF08071DC
:1013F000064A083A5160012180F82110002180F846
:101400002010416B01B18847204610BD0800024002
:101410002DE9F84FDFF8B8910024A9F1040B234619
:101420000F2709F1040AABF1040EC9E00125A5401C
:101430002A40AA427DD1674ED1F804C0ACEB060821
:10144000B44532D014DCBCF1030F3AD009DCBCF156
:10145000000F2AD0BCF1010F1CD0BCF1020F31D11A
:101460001DE0BCF1110F17D0BCF1120F2AD119E009
:10147000B8F5881F19D006DCB8F5803F15D0B8F54F
:10148000801F1FD111E0B8F5001F0ED0B8F5041F62
:1014900018D10AE0CB6815E0CB681B1D12E0CB68C1
:1014A00008330FE0CB680C330CE08B682BB1012BB9
:1014B0004FF0080303D0456104E0042302E0056116
:1014C00000E00023FF2A01D8064601E000F10406EF
:1014D0004FEA840501D9A5F12005D6F8008007FA66
:1014E00005FC28EA0C0803FA05F548EA0508C6F8E1
:1014F00000804D68ED0062D5374DAE6946F00106BB
:10150000AE61AD6924F0030605F001050095334D89
:1015100006EB050CDCF80850A607360F07FA06F8AC
:1015200025EA0805DFF8B880404503D14FF00008F0
:1015300017E044E0DFF8AC80404502D14FF00108ED
:101540000FE0DFF8A480404502D14FF0020808E028
:10155000DFF89880404502D14FF0030801E04FF0DA
:10156000040808FA06F848EA0508CCF808804D682F
:10157000D9F80060ED024D4601D5164300E09643D0
:101580002E604D68DAF80060AD02554601D516436D
:1015900000E096432E604D68DBF80060AD035D46C9
:1015A00001D5164300E096432E604D68DEF80060DA
:1015B000ED03754601D5164300E096432E60641C8A
:1015C0000D682A46E5407FF431AFBDE8F88F000092
:1015D000080401400000111000100240000001400A
:1015E00000080140000C01400010014000140140BF
:1015F00001488068704700000400002002488168AC
:10160000027811448160704704000020074810B53B
:10161000016841F010010160032000F075F80F200F
:1016200000F006F800F024F8002010BD0020024071
:1016300070B50D4D04464FF47A712878B1FBF0F087
:101640000A490968B1FBF0F000F0DCFA48B9102C47
:1016500007D200222146501E00F036F800206C60B0
:1016600070BD012070BD00000400002010000020AB
:101670000C4808B5816941F001018161816901F07F
:1016800001010091C16941F08051C161C06900F060
:10169000805000900448416821F0E06141F0007101
:1016A000416008BD0010024000000140002809DB35
:1016B00000F01F02012191404009800000F1E0206C
:1016C000C0F8001170470000F0B40E4B1B680C46C8
:1016D000C3F30223C3F10705042D00D90425191D06
:1016E000072901D2002300E0DB1E012606FA05F1DE
:1016F000491E214099409E40761E16403143F0BC61
:1017000001F08BBB0CED00E0064900F00702086811
:101710004FF6FF03184040EA0220034A10430860D6
:10172000704700000CED00E00000FA052DE9F047DD
:101730000F46050061D0434E306800F00700B84204
:1017400009D2306820F0070038433060306800F07C
:101750000700B84251D128683B4C810712D5400799
:1017600003D5606840F4E06060602878000703D526
:10177000606840F4605060606068A96820F0F00024
:10178000084360602878C00728D06868012810D016
:101790002168022810D0890700292EDA616821F01B
:1017A000030101436160FFF723FF804641F288395E
:1017B0000DE021688903EFE78901EDE7FFF718FFE6
:1017C000A0EB0801494502D90320BDE8F087606815
:1017D000696800F00C00B0EB810FEFD1306800F0C9
:1017E0000700B8420BD9306820F00700384330605A
:1017F000306800F00700B84201D00120E5E7287802
:10180000400705D56068E96820F4E060084360603F
:101810002878000706D56068296920F4605040EAFE
:10182000C100606000F038F86168084AC1F3031134
:10183000515CC8400649086006480068FFF7F8FE9A
:101840000020C2E70020024000100240AA3A00082F
:10185000100000200800002004480549006849687D
:10186000044AC1F30221515CC840704710000020B7
:1018700000100240BA3A0008044805490068496867
:10188000044AC1F3C221515CC840704710000020D7
:1018900000100240BA3A00080E4A51680E4801F0A2
:1018A0000C03042B11D0082B0FD10C48C1F3834338
:1018B000C903C05C0AD55168084AC1F34041921E71
:1018C000515C054A5043B0FBF1F07047044948436E
:1018D000704700000010024000127A009A3A000897
:1018E00000093D002DE9F84F040070D02078C04D6C
:1018F000C00749D06868C0F38100012807D0686834
:10190000C0F38100022809D16868C00306D52868A1
:10191000800339D560680028E7D035E06068B0F50D
:10192000803F0BD010B1B0F5A02F11D0286820F463
:1019300080302860286820F4802002E0286840F485
:1019400080302860606890B1FFF752FE06460AE0DA
:10195000286840F480202860F0E700BFFFF748FEC9
:10196000801B642873D828688003F7D50CE0FFF744
:101970003FFE064605E000BFFFF73AFE801B6428E5
:10198000F0D828688003F7D420789A4E80074FF06B
:1019900001094FF0000839D5686810F00C0F07D026
:1019A0006868C0F38100022809D16868C00306D4C2
:1019B0002868800714D52069012808D110E0206923
:1019C000B0B1C6F80090FFF713FE074605E00AE144
:1019D000FFF70EFEC01B0228C4D828688007F7D581
:1019E0002868616920F0F80040EAC10028600DE035
:1019F000C6F80080FFF7FCFD074604E0FFF7F8FD9E
:101A0000C01B022823D828688007F7D42078000755
:101A10002CD57948A169D9B1C0F80090FFF7E8FD4D
:101A2000074604E0FFF7E4FDC01B02280FD8686AF0
:101A30008007F7D571484FF4FA510068B0FBF1F018
:101A4000009000BF0098411E0091FAD20EE080E0A5
:101A5000C0F80080FFF7CCFD074604E0FFF7C8FDA3
:101A6000C01B022875D8686A8007F7D42078400721
:101A700060D5E8690027C00008D4E86940F08050CC
:101A8000E861E869012700F0805000905C48016837
:101A9000C90513D40168834641F480710160FFF7E2
:101AA000A7FD824606E000BFFFF7A2FDA0EB0A00FB
:101AB00064284ED8DBF80000C005F5D5E0680128A1
:101AC0000AD008B1052813D0286A20F00100286246
:101AD000286A20F0040002E0286A40F00100286231
:101AE000E06841F2883B98B1FFF782FD82460BE047
:101AF000286A40F004002862EEE700BFFFF778FD97
:101B0000A0EB0A0159455AD8286A8007F6D50CE09F
:101B1000FFF76EFD824605E0FFF76AFDA0EB0A01C4
:101B200059454CD8286A8007F6D41FB1E86920F0DF
:101B30008050E861E06988B36968C1F381010229D6
:101B400044D00228C6F8608004D0FFF751FD044657
:101B500038E034E0FFF74CFD074604E0FFF748FDAE
:101B6000C01B02282BD828688001F7D4206AB0F562
:101B7000803F05D16868A16820F4003008436860A0
:101B8000D4E908010843696821F4741108436860C6
:101B9000C6F86090FFF72CFD044606E025E000BF84
:101BA000FFF726FD001B022809D828688001F7D519
:101BB0001BE000BFFFF71CFD001B022802D9032019
:101BC000BDE8F88F28688001F4D40EE00128F7D032
:101BD0006868226A00F48031914204D1616A00F49D
:101BE0007010884201D00120EAE70020E8E70000F9
:101BF00000100240000042428004424210000020D7
:101C00000070004010B5401EB0F1807F01D301206C
:101C100010BD4FF0E02460610F21601701F0FDF866
:101C20000020A06107202061002010BD70B590F851
:101C30003C20012A26D0012480F83C40022280F872
:101C40003D2003685A689D6822F070060A68324396
:101C50005A600D4B02689A4208D0B2F1804F05D00D
:101C60000A4B9A4202D00A4B9A4204D1496825F0A5
:101C700080031943916080F83D40002180F83C10BA
:101C8000084670BD022070BD002C014000040040D9
:101C90000008004010B5040003D094F83D0010B1D6
:101CA00007E0012010BD002084F83C00204600F031
:101CB0001FF8022084F83D00211D206800F032FE4C
:101CC000012084F8460084F83E0084F83F0084F840
:101CD000400084F8410084F8420084F8430084F80E
:101CE000440084F8450084F83D00002010BD000049
:101CF00008B501681148B1F1804F0BD0104A9142EC
:101D000010D1C16941F00201C161C06900F0020057
:101D1000009008BDC16941F00101C161C06900F0D6
:101D20000100F5E7074A9142F3D1C16941F004018E
:101D3000C161C06900F00400EAE700000010024041
:101D4000000400400008004070B5044690F83C00D4
:101D50000025012817D0012684F83C60022084F871
:101D60003D002068826822F0770222F47F42826080
:101D70000868502838D00DDC20284FD005DC90B3FF
:101D8000102811D14AE0022070BD302846D04028EA
:101D90000AD13BE060282FD070280DD0B0F5805FCD
:101DA00003D0B0F5005F12D0012584F83D6000201B
:101DB00084F83C00284670BDCB68D1E90121206839
:101DC00000F0F3FD2068816841F0770109E0CB68FD
:101DD000D1E90121206800F0E8FD2068816841F424
:101DE00080418160E1E719E0CA684968206800F035
:101DF00091FE5021206806E0CA684968206800F01A
:101E00009AFE6021206800F0DAFDCEE7CA684968D2
:101E1000206800F07FFE40212068F4E72268014638
:101E20001046F0E770B586B0002100910191029153
:101E300003910068254903250224254AB0F1804F0B
:101E40001ED0244B244E98422CD1886940F00400C7
:101E50008861886900F004000490886940F00800F7
:101E600088618869694600F008000490C020CDE9C7
:101E7000000410460394FFF7CBFACDE9005420E0AC
:101E8000886940F0040088618869CDE9005400F059
:101E90000400CDE9034069464FEA0200FFF7B8FAB3
:101EA00006B070BD0D4A9042FAD1886940F0080032
:101EB0008861886900F0080004904FF47070CDE9E3
:101EC0000004694630460394E8E700000010024031
:101ED0000008014000040040000C014000080040E0
:101EE00070B5044690F83C0000260D4601280FD03E
:101EF000012084F83C006AB1042A1DD0082A2FD0A2
:101F00000C2A3FD00126002084F83C00304670BDEA
:101F1000022070BD206800F05BFD2068816941F0FF
:101F2000080181612068816921F0040181612068D4
:101F300081692A69114311E0206800F071FD206871
:101F4000816941F4006181612068816921F48061C7
:101F50008161206881692A6941EA02218161D2E7B1
:101F6000206800F089FD2068C16941F00801C16165
:101F70002068C16921F00401C1612068C1692A6932
:101F8000114311E0206800F0A3FD2068C16941F40D
:101F90000061C1612068C16921F48061C16120686C
:101FA000C1692A6941EA0221C161ACE710B50400A8
:101FB00003D094F83D0010B107E0012010BD0020CF
:101FC00084F83C00204600F01EF8022084F83D0012
:101FD000211D206800F0A6FC012084F8460084F84A
:101FE0003E0084F83F0084F8400084F8410084F803
:101FF000420084F8430084F8440084F8450084F8E3
:102000003D00002010BD704710B50446022249B1C2
:1020100004290ED0082913D094F84100012816D0C5
:10202000012010BD94F83E000128F9D184F83E202B
:102030000FE094F83F000128F2D184F83F2008E037
:1020400094F840000128EBD184F8402001E084F8A6
:1020500041200122206800F09BFC0F492068884243
:1020600003D1426C42F4004242642068884208D0A6
:10207000B0F1804F05D00949884202D00849884212
:1020800004D1816801F00701062903D0016841F0FD
:1020900001010160002010BD002C0140000400403F
:1020A0000008004070477047F8B5016804460868AA
:1020B000CA684B6910F00F0F4FF0000559D003F0BC
:1020C000010602F49077374365D0C10705D0D105EA
:1020D00003D5616C41F001016164410705D5D90761
:1020E00003D0616C41F002016164810705D5D90715
:1020F00003D0616C41F004016164010707D502F06F
:102100002001314303D0616C41F008016164616CCE
:1021100000293AD0800604D5900602D5204600F06A
:102120004BFD20684069616CC0F38010090700D442
:1021300060B3204600F019FD20684069400621D5B3
:102140002068143050E8001F21F0400140E80012E0
:10215000002AF5D1E06BA8B16D494163E06BFFF750
:102160000BF9002811D0E06B416B01B0BDE8F040E5
:10217000084783060FD593060DD52046BDE8F840E5
:1021800000F01ABD2046FFF78EFFF8BD2046FFF78E
:102190008AFF6564F8BD266B2023012E7CD1C6061C
:1021A0007AD5D60678D508684868009048694FF017
:1021B0000206400640D5E16B086840680004000C48
:1021C000E8D0A28D8242E5D9E085886920282DD00B
:1021D00020680C3050E8001F21F4807140E80012A4
:1021E000002AF5D12068143050E8001F21F00101C9
:1021F00040E80012002AF5D12068143050E8001F92
:1022000021F0400140E80012002AF5D184F8423064
:10221000256320680C3050E8001F21F0100140E8D1
:102220000012002AF5D1E06BFFF782F86663A08DFB
:10223000E18D401A81B22AE0A08DE18D401A81B271
:10224000E08D0028A6D00029A4D022680C3252E8E4
:10225000000F20F4907042E80007002FF5D12068AD
:10226000143050E8002F22F0010240E80027002F30
:10227000F5D184F84230256320680C3050E8002FF7
:1022800022F0100240E80023002BF5D166632046BF
:10229000FFF708FFF8BDFFE705062BD5150629D582
:1022A00094F841002128F5D1A068B0F5805F01D1F4
:1022B0002069B0B1206A411C216221680078486021
:1022C000E08C401E0004000CE084E3D12068C1686B
:1022D00021F08001C1602068C16841F04001C16007
:1022E000D8E7206A0088C0F308004860206A801C94
:1022F0002062E5E74006CDD55006CBD5CA6820461A
:1023000022F04002CA6084F8413000F03CF9C1E795
:102310005B2B000870B5040004D094F84100002540
:1023200010B106E0012070BD84F84050204600F056
:1023300023F8242084F841002068C16821F400516A
:10234000C160204600F09AFC2068016921F49041A8
:1023500001612068416921F02A0141612068C1685A
:1023600041F40051C1606564202084F8410084F884
:1023700042006563002070BDF0B585B00024009474
:102380000194029403940368384F022038490322D1
:10239000384D4602BB4228D18B6943F480438B61A0
:1023A0008B6903F4804304938B6943F004038B61CE
:1023B0008969039201F0040104910102CDE9001042
:1023C00069462846FFF724F8CDE9006469462846A7
:1023D0000294FFF71DF8002211462520FFF774F93B
:1023E0002520FFF763F905B0F0BD234FBB4219D19B
:1023F000CB6943F40033CB61CB6903F4003304931E
:102400008B6943F004038B618969039201F0040135
:1024100004910421CDE9001069462846FEF7F8FF33
:1024200008201BE0154DAB42DDD1CB6943F480237E
:10243000CB61CB6903F4802304938B6943F00803D9
:102440008B6189690E4D01F00801CDE90321CDE9C9
:10245000006069462846FEF7DBFFE814CDE900047A
:10246000694628460294FEF7D3FFBCE700380140D6
:1024700000100240000801400044004000480040B5
:10248000000C014090F84230202B01D00220704710
:1024900021B11AB10023036300F04CBC0120704746
:1024A0000F4910B588421AD10E4C21786078491C2A
:1024B000CAB20D4922707D28885408D1084600F020
:1024C00097FD1E210848FDF726FF002020700549D2
:1024D0000122BDE81040491C0148FFF7D3BF10BDE1
:1024E0000C01002000000020140000202DE9F8431A
:1024F000044690F841001F4616460D46202802D09B
:102500000220BDE8F8837DB176B10020606421200F
:1025100084F84100FFF76CF8A6848046E684A06842
:10252000B0F5805F02D003E00120EAE7206910B136
:102530002E4600250EE000260CE08021204600F00B
:1025400014FCA0B9AEB116F8010B21684860E08C0C
:10255000401EE084E08C43464FF0000200970028C4
:10256000EBD14FF04001204600F0FFFB30B10320DB
:10257000C7E735F8020BC0F30800E6E7202084F82F
:1025800041000020BDE77047FEE700000D4808B598
:10259000816941F020018161816901F02001009190
:1025A000816941F004018161816901F004010091B8
:1025B000816941F008018161806900F008000090A4
:1025C00008BD00000010024010B58EB00024079432
:1025D000089409940A940B941C2168460C94FDF706
:1025E000BCFE24484FF08041016040F2CF21C0E999
:1025F000011440F2CF71C0E9031480218161FFF71B
:1026000049FB08B1FEF769FE4FF48050079007A917
:102610001848FFF799FB08B1FEF75FFE1548FFF772
:10262000C5FC08B1FEF759FE0B940BA911480C9498
:10263000FFF7FCFA08B1FEF750FE6020009064201E
:10264000CDE90104002269460A480494FFF748FCDA
:1026500008B1FEF742FE3220019004226946054887
:10266000FFF73EFC08B1FEF738FE0248FFF7DAFB41
:102670000EB010BD3400002010B58EB000240794B9
:10268000089409940A940B941C2168460C94FDF755
:1026900064FE2B48294901604721C0E9011440F23A
:1026A000E731C0E9031480218161FFF7F3FA08B133
:1026B000FEF713FE4FF48050079007A92048FFF75C
:1026C00043FB08B1FEF709FE1D48FFF76FFC08B198
:1026D000FEF703FE0B940BA919480C94FFF7A6FA1A
:1026E00008B1FEF7FAFD6020CDE900040294002253
:1026F000694613480494FFF7F3FB08B1FEF7EDFDBC
:10270000042269460E48FFF7EBFB08B1FEF7E5FD32
:10271000082269460A48FFF7E3FB08B1FEF7DDFD32
:102720000C2269460648FFF7DBFB08B1FEF7D5FD32
:102730000348FFF777FB0EB010BD00000004004017
:102740007C00002010B58EB00024079408940994F2
:102750000A940B941C2168460C94FDF7FEFD2B484F
:10276000294901604721C0E9011440F2E731C0E97D
:10277000031480218161FFF78DFA08B1FEF7ADFDEA
:102780004FF48050079007A92048FFF7DDFA08B101
:10279000FEF7A3FD1D48FFF709FC08B1FEF79DFDFC
:1027A0000B940BA919480C94FFF740FA08B1FEF7F7
:1027B00094FD6020CDE9000402940022694613488C
:1027C0000494FFF78DFB08B1FEF787FD04226946EC
:1027D0000E48FFF785FB08B1FEF77FFD082269462A
:1027E0000A48FFF77DFB08B1FEF777FD0C2269462A
:1027F0000648FFF775FB08B1FEF76FFD0348FFF7CA
:1028000011FB0EB010BD000000080040C400002005
:102810000C4810B50A4901604FF41651416000217F
:1028200081600C22C160C0E904128161C161FFF7BF
:1028300071FD002803D0BDE81040FEF74EBD10BD6D
:10284000003801400C0100200C4810B50A49016015
:102850004FF4E1314160002181600C22C160C0E988
:1028600004128161C161FFF755FD002803D0BDE866
:102870001040FEF732BD10BD00440040540100205E
:102880000C4810B50A4901604FF4E1314160002164
:1028900081600C22C160C0E904128161C161FFF74F
:1028A00039FD002803D0BDE81040FEF716BD10BD6D
:1028B000004800409C010020FEE7FEE7704770479B
:1028C000FEF79CBE30B58FB028216846FDF745FD68
:1028D00014210AA8FDF741FD01210804CDE90010EB
:1028E0000024029402250491CDE907504FF4E01032
:1028F00009906846FEF7F6FF08B172B6FEE70F20B2
:10290000CDE90A054FF48060CDE90C4002210AA808
:102910000E94FEF70BFF002801D072B6FEE70FB051
:1029200030BD7047F0B50268164B174C174D4FF08D
:102930008047984205D0B84203D0A04201D0A842B7
:1029400003D122F070064A683243984205D0B8425B
:1029500003D0A04201D0A84203D122F44074CA6837
:1029600022434C6922F08002224302608A68C262DC
:102970000A688262984201D10969016301214161BB
:10298000F0BD0000002C01400004004000080040A1
:1029900010B501F01F030121046A99408C430462C1
:1029A000016A9A401143016210BD10B5846842EA81
:1029B000032224F47F440A432243826010BD8268CC
:1029C00022F070020A4342F0070181607047000064
:1029D00030B5036A026A22F0010202624268846929
:1029E00024F073050C682C4323F002058B682B43FD
:1029F0000A4DA8420BD123F00805CB6822F440729F
:102A00002B434D6923F0040315438A692A4342602E
:102A1000846149684163036230BD0000002C0140BD
:102A200030B5026A036A23F01003036243688469C5
:102A30000D6824F4E64444EA05248D6822F020025F
:102A400042EA05120B4DA8420ED1CD6822F0800259
:102A500042EA05124D6923F4406343EA85038D6918
:102A600022F0400243EA8503436084614968816340
:102A7000026230BD002C014030B5036A026A22F4C4
:102A8000807202624268C46923F4007324F0730503
:102A90000C682C438D6843EA05230C4DA8420ED1E7
:102AA000CD6823F4006343EA05234D6922F44052C4
:102AB00042EA05128D6923F4806342EA05124260FE
:102AC000C4614968C163036230BD0000002C01404D
:102AD00030B5046A026A22F4805202624268C36915
:102AE0000D6823F4E64343EA05238D6824F400547B
:102AF00044EA0534064DA84204D14D6922F48042CF
:102B000042EA85124260C36149680164046230BDD3
:102B1000002C014010B5036A046A24F00104046229
:102B2000846924F0F00444EA021423F00A020A4300
:102B30008461026210BD10B5036A046A24F01004B7
:102B40000462846923F0A00324F4704444EA02324E
:102B500043EA01118261016210BD10B5406A002193
:102B6000C185C184FFF79FFA10BD01680C3151E89F
:102B7000002F22F4907241E80023002BF5D1016868
:102B8000143151E8002F22F0010241E80023002B0C
:102B9000F5D1016B012909D101680C3151E8002FF1
:102BA00022F0100241E80023002BF5D1202180F80B
:102BB000421000210163704708B590F842102229A5
:102BC00001D0022008BD82684FF480539A4201D19F
:102BD000016921B1816A9A421BD04AB10AE00268B8
:102BE000816A5268C2F308020A80816A891C08E07F
:102BF000026972B10268526802F07F020A70816A4B
:102C0000491C8162C18D491E0904090CC18503D08C
:102C10001BE002685268F1E70168CA6822F02002EE
:102C2000CA600168CA6822F48072CA6001684A6991
:102C300022F001024A61202180F842100021416304
:102C4000026B012A03D0FFF72BFC002008BD0163B3
:102C500001680C3151E8002F22F0100241E80023F6
:102C6000002BF5D101680A68D20602D50A684968C6
:102C70000091818DFFF716FAE7E7000070B5044672
:102C800000680169E26821F4405111430161216942
:102C9000A0680843616908432168CA6841F20C636F
:102CA0009A430243CA6020684169A26921F44071D5
:102CB000114341611E492068884202D1FEF7DCFDC4
:102CC00001E0FEF7C9FD00EBC00101EB00126068F6
:102CD00064218000B2FBF0F3B3FBF1F36FF0180650
:102CE0007343B2FBF0F5B2FBF0F605EB830532233C
:102CF00003EB0515B5FBF1F5B6FBF1F605F0F005B4
:102D000005EB0615B2FBF0F6B2FBF0F0B0FBF1F00C
:102D10006FF01802504306EB800003EB0010B0FB8D
:102D2000F1F0216800F00F002844886070BD0000B9
:102D30000038014081628285C285002141642221E0
:102D400080F84210016921B10168CA6842F48072BA
:102D5000CA6001684A6942F001024A610068C168BC
:102D600041F02001C160002070472DE9F0419846F4
:102D700017460E460446069D27E0681C25D02DB157
:102D8000FEF736FCA0EB0800A8421ED920680C30E4
:102D900050E8001F21F4D07140E80012002AF5D15C
:102DA0002068143050E8001F21F0010140E80012B3
:102DB000002AF5D1202084F8410084F84200002048
:102DC00084F840000320BDE8F0812068006836EAFE
:102DD000000004D00020B842CFD00020F3E701204B
:102DE000F9E700000148FFF75FB900000C0100207F
:102DF000FEE7490050EAC12018BF04204A0D18BF61
:102E000040F0010040F2FF72B2EB515F08BF40F0AA
:102E10000200012808BF052070470907090E002895
:102E200004DB00F1E02080F80014704700F00F0090
:102E300000F1E02080F8141D704730380A2801D2D4
:102E40000120704700207047B42800D90020704747
:102E500003490A68D06309680020086470470000CD
:102E60007C000020034900220B68DA6309680864CB
:102E7000704700007C00002003490A68506309681D
:102E800000208863704700007C0000200349002276
:102E90000B685A6309688863704700007C00002053
:102EA00010B50A4900F02AFD00F0F4FCC3B2184640
:102EB000FEF72AFA1846FEF713FA1846FFF7DCFF6A
:102EC000BDE810401846FFF7C3BF00000000C8C2AD
:102ED00010B50A4900F012FD00F0DCFCC4B2204637
:102EE000FEF71CFA2046FEF705FA2046FFF7CEFF54
:102EF0002046BDE81040FFF7B5BF00000000C84203
:102F000010B50A4900F0FAFC00F0C4FCC4B2204637
:102F1000FEF704FA2046FEF7E3F92046FFF798FF94
:102F20002046BDE81040FFF79DBF00000000C842EA
:102F300010B50A4900F0E2FC00F0ACFCC4B2204637
:102F4000FEF7E2F92046FEF7D5F92046FFF79EFF8F
:102F50002046BDE81040FFF77BBF00000000C8C25C
:102F600010B50A4900F0CAFC00F094FCC4B2204637
:102F7000FEF7CAF92046FEF7BDF92046FFF768FFC5
:102F80002046BDE81040FFF76DBF00000000C842BA
:102F900010B50A4900F0B2FC00F07CFCC4B2204637
:102FA000FEF7BCF92046FEF79BF92046FFF76EFFBF
:102FB0002046BDE81040FFF74BBF00000000C8C22C
:102FC000094900200A68D0630A6810640A685063DF
:102FD0000968886305490A68D0630A6810640A684A
:102FE00050630968886370477C000020C40000209B
:102FF0002DE9F047444A8AB00021535C491CC9B20C
:103000007B2BFAD1425C012A2FD0022A2AD1441804
:103010006078FFF719FF00F05DFC0746A078FFF726
:1030200013FF00F057FC064600F0ECFB04460D468B
:10303000384600F0E7FB02460B4634A104A8CDE970
:103040000045FDF7CDF804A800F0BCF8384600F0C4
:1030500005FC00B200F070F8304600F0FFFB00B253
:1030600000F078F80AB0BDE8F0874418607800F006
:10307000BBF88146A07800F0B7F80746E07800F08A
:10308000B3F8804600F0BEFB06468A46384600F09C
:10309000B9FB04460D46484600F0B4FB8DE87004C9
:1030A0000B4602461EA104A8FDF79AF804A800F0FA
:1030B00089F818F0FF4F4FF4000105D040468845CD
:1030C0001EDBFFF74DFFCDE719F0FF4F05D0484657
:1030D000894512DBFFF7FCFEC4E78F4203DB38466D
:1030E000FFF70EFFBEE717F1FF4F03D33846FFF798
:1030F0001FFFB7E7FFF764FFB4E7FFF7D1FEB1E7C3
:10310000FFF746FFAEE70000140000206A313A25C1
:103110002E32662C6A323A252E32660D0A000000E5
:10312000783A252E32662C793A252E32662C7A3A58
:10313000252E32660D0A0000B4214843C82190FBB9
:10314000F1F00349323000B209684863704700006B
:1031500034000020B4214843C82190FBF1F003491A
:10316000323000B2096888637047000034000020E4
:10317000FEF74CFAFFF7A6FBFFF708FAFFF724FA71
:10318000FFF77AFAFFF744FBFFF75EFBFFF7DAFA87
:10319000FFF776FB00F00CF8FEF776F8FEF75EF826
:1031A0005A20FFF7C9FF5A20FFF7D4FFFEE70000BF
:1031B000012202490248FFF765B900000100002022
:1031C0000C01002070B50546002429196423012252
:1031D0000448FFF78BF9641CE4B2285D0028F4D1A1
:1031E00070BD00000C0100202DE9F041C509C0F3BD
:1031F000021600F00F0000F009F90A4A0A4B00F02D
:1032000019F907460C46304600F000F93A462346C5
:1032100000F054F800F020F8002D01D080F00040BC
:10322000BDE8F0819A9999999999B93F10B500290B
:103230000AD00878002807D005487844FDF70CFC30
:10324000002801D0002010BD0248784410BD0000C5
:103250003E0900003609000021F00042A2F1605250
:10326000B2F5801F01F0004328BFD2F17F6C0BD96B
:103270005FEA001C43EAC20242EB507018BF70477D
:1032800028BF20F001007047B2F5801FBCBF184670
:1032900070474FEA410C1CF5001F02D2084600F0AF
:1032A000F4BB70B500F070F900000089FFF7F6BFBD
:1032B0004FF00040A0F580007047000010B591EA83
:1032C000030F48BF83F0004300F1BA81841A71EB09
:1032D000030C05D2121943EB0C03001B61EB0C012C
:1032E000DFF824E14FEA1154A4EB135C1EEA430F0C
:1032F00018BF9EEA445F73D023EA0E03DCF1200E70
:1033000021EA045143F4801332D322FA0CFE10EB6D
:103310000E0023FA0CFE41EB0E01CCF1200E03FA55
:103320000EFE10EB0E0051F10001B1F5801FCCF143
:10333000200E32D201EB045112FA0EF2BDE8104019
:1033400058BF7047401C38BF5FEA420218BF704741
:10335000002814BF20F0010041F100014FEA4103B1
:1033600013F5001F38BF7047A1F1C04100F05AB9F2
:10337000012A43EB0302ACF1200CDCF11F0E32BF3B
:103380004FF0000E23FA0CF310EB030041EB045155
:10339000B4EB115FD0D0A1EB045101F580114908C5
:1033A0005FEA300001EB04510ED350F1000038BF4A
:1033B00012FA0EFE08D1BDE81040C9E7401C38BF24
:1033C0005FEA4202CAD1C3E7BDE810404FEA4103B9
:1033D00013F5001F38BF7047A1F1C04100F022B9BA
:1033E0009EEA445F08D011EA5E0FBDE8104004BFBA
:1033F00001F0004100207047BDE8104070B500F0BA
:10340000C3F800BF64FBBE3E0000E0FFB0FA80F3EB
:1034100010FA03F10AD0C3F11D0303F580634FEAEC
:1034200041504FEA035202EBD12170474FF00000A8
:1034300070470000DFF848C170B51CEA111E1EBFBE
:103440001CEA13159EEA0C0F95EA0C0F00F06F8032
:1034500081EA030423EA4C134EEAD47E21EA4C119C
:1034600041F4801143F48013AE44A1FB024CA0FB55
:103470000365AEF17F7E361955EB0C05A1FB034CBD
:103480004CF10003A0FB021C16EB0C06654153F146
:103490000003094218BF46F0010613F4007F0BD168
:1034A0004FEA03314FEA0530340341EA155140EA4F
:1034B00016506FF003020AE04FEAC3214FEAC5201D
:1034C000F40241EA555140EA56506FF0020202EB15
:1034D0002E4201EB025585EACE710AD05FEA440C18
:1034E00018BF24F0004450F1000041F1000120EA2F
:1034F000D47040F2FE7C624500D270BDA84214BF79
:103500004FF080444FF04044002E08BF0024BEF12D
:10351000806FA8BFA1F1C041BDE8704080F28280F9
:103520004FF0000001F1C04101F0004170479EEAF8
:103530000C0F0CEA131518BF95EA0C0F06D04FF0CC
:10354000000081EA030E0EF0004170BD00F01CF88F
:103550008900013E00F007B800F009B84FEA430CBB
:103560005FEA5C5C08D081EA030100F05BB84FEAD7
:10357000410C5FEA5C5CF6D14FF0000001497047F6
:103580000000FF070000F87F0EF1020E2EF0030E80
:103590005EF8046B364205D4012A43EB030515F5AA
:1035A000001F12D8012841EB010C1CF5001F0CD89C
:1035B0000ED14FEAD17C15F5001F0CEB4C0C0CF131
:1035C000020C08BF4CEBD37C04E04FF0080C01E088
:1035D0004FEAD37C0CEB4C0526FA05F606F00706FD
:1035E000B6F1040C06D20EEB860CBDE870404CF030
:1035F000010C6047DFE80CF0090B02024FF00041BC
:103600004FF00000A1F5002170BD194610460128B9
:1036100051EB010418BFD4F5001484BF002001F061
:10362000004170BD0808A0F500114FEA3101704754
:1036300010B591EA030F48BF83F000433FF546AE53
:10364000841A71EB030C07D212198CF0004C43EB77
:103650000C03001B61EB0C01DFF8A4E14FEA1154ED
:10366000A4EB135C1EEA430F18BF9EEA445F00F010
:10367000B08023EA6E03524221EA0451C3EB6E0389
:1036800038BF5B1EDCF1200E25D322FA0CFE10EBB6
:103690000E0043FA0CFE41EB0E01CCF1200E03FAB2
:1036A0000EFE10EB0E0051F10001CCF1200E29D4DA
:1036B00012FA0EF201EB0451BDE8104058BF7047FA
:1036C000401C1CBFB2F1004F704700280CBF491CC2
:1036D00020F00100704712EB020E43EB030218BF0B
:1036E0004FF0010E4EEA4202ACF1200CDCF11E0E4E
:1036F00054D943FA0CFE10EB0E0051F1FF31CCF11E
:103700001E0ED5D50EF1010E12FA0EFE404141EB10
:10371000010101EB445C5FEA5C5C10D910EBDE70E8
:1037200001EB045138BFBEF1004FBDE8104018BF97
:10373000704700280CBF491C20F00100704730D2B0
:103740004FEAD42C11F5001124F400641BD0B1FA17
:1037500081F20B3AA41AA41ED2F12003914030FA50
:1037600003F31943904001EBCC71002C01EB0451A1
:10377000BDE81040A8BF704701F1C0414FF0000004
:1037800001F000417047B0FA80F310FA03F100D164
:1037900010BDE41A173C4805C90AE4E701EB0451DF
:1037A00010BD491001EB0451BDE810404FEA300054
:1037B00002E04FF0000170474A0008BF0042F8D015
:1037C000B2F5001F28BF704701F000414FF0000024
:1037D00070479EEA445F07D011EA5E0FBDE81040D3
:1037E00004BF002100207047BDE8104070B5FFF70E
:1037F000CBFE00BF40DFF63E83F00041104670472D
:103800000000E0FF43004FEAD30C4FEA3C0C43407A
:103810001FBF40070CF1605113F0FE4F70471CF0C2
:10382000006F03D100200CF0004170470CF0004302
:1038300043EA507010B540EACC0000F0E0F800BF59
:10384000000000924FEA0001FFF7ECBE4FF000418C
:103850004FF00000A1F500217047000041000B0E61
:10386000D3F19E0208D950F400034FEA032323FA50
:1038700002F048BF4042704710B500F0C0F800BFEA
:1038800049922480002070476FF0004282EA2000B5
:1038900070470000C10DD1F19E0206DB4FEA002304
:1038A00043F0004323FA02F07047004207D54FEA85
:1038B0004001B1F1FE4F02D24FF00000704710B549
:1038C00000F09DF849922480002070476FEA2000A4
:1038D00070470000B0FA80F310FA03F2C3F19D03C1
:1038E0000AD0D90501EB1220530638BF704700F10A
:1038F000010008BF20F00100704700004FF47F0C6A
:103900001CEAD0121EBF1CEAD11392EA0C0F93EAF4
:103910000C0F00F0478090EA010F48BF42F480721C
:103920004FF0004C4CEA00204CEA012102EB03026C
:10393000A0FB0113A2F50002002918BF43F0010308
:103940005B0028BF4FEA330342EB22425FEA132CAD
:103950004CEBC2502EBFBCEB436FB2F57C0F7047EF
:103960004FEA036CBCF1004F08BF20F00100B2F534
:103970007C0F38BF70470BD582F0FF0212F5803FF5
:10398000C8BF704700F1C040D8BF00F0004070478A
:1039900000F5000C5FEA4C0C48BF7047B0F1C04026
:1039A00000F073B890EA010F0CEAD11348BF42F45B
:1039B0008072624538BF634504D280EA010000F09E
:1039C0000040704710B500F01AF800BF8900013EB2
:1039D00000F007B800F009B85FEA410C5FEA1C6C20
:1039E00008D080EA010000F050B85FEA400C5FEABE
:1039F0001C6CF6D14FF00040A0F5800070470EF12E
:103A0000020E2EF0030E5EF8044B244204D44FEA5B
:103A10004102B2F17F4F11D84FEA4003B3F17F4F1B
:103A20000CD80ED14FEAD07CB2F17F4F0CEB4C0C8E
:103A30000CF1020C08BF4CEBD17C04E04FF0080CF9
:103A400001E04FEAD17C0CEB4C0324FA03F404F0C0
:103A50000704B4F1040C06D20EEB840CBDE8104050
:103A60004CF0010C6047DFE80CF0070802024FF051
:103A70000040A0F5800010BD0846420018BFD2F1FA
:103A8000807288BF00F0004010BDFF2141EAD05095
:103A9000C0057047FCF762BD01020203040506077A
:103AA00008090A0B0C0D0E0F10100000000000009A
:103AB00000000102030406070809000000000102DB
:103AC0000304000002400000000000A0000000000D
:103AD00005400000000000C8000000000C4000008D
:103AE0000000409C00000000194000000020BCBE07
:103AF0000000000034400000BFC91B8E000000041D
:103B0000B5400000504BCFD06607E2CF0100000067
:103B10006C4100003E8251AADFEEA7340100000094
:103B2000D9420000DCB5A0E23A301F97FFFFFFFF4B
:103B3000B4450000FD25A0C8E9A3C14FFFFFFFFF6A
:103B4000FF3F00000000008000000000FF3F000079
:103B50000000008000000000943B000800000020EE
:103B60001400000028010008A83B000814000020F1
:103B700034080000440100081C000000430000005D
:103B8000F8FFFFFF0C0000000E0000000F00000017
:103B90002E000000000000000100000010000000E6
:083BA000000000000024F40005
:04000005080000ED02
:00000001FF
