:020000040800F2
:100000007008002089010008AF1900087D1600085B
:10001000AD190008FD020008F11E000800000000F4
:10002000000000000000000000000000B3190008FC
:100030005103000800000000B1190008B5190008BC
:10004000A3010008A3010008A3010008A301000800
:10005000A3010008A3010008A3010008A3010008F0
:10006000A3010008A3010008A3010008A3010008E0
:10007000A3010008A3010008A3010008A3010008D0
:10008000A3010008A3010008A3010008A3010008C0
:10009000A3010008A3010008A3010008A3010008B0
:1000A000A3010008A3010008A3010008A3010008A0
:1000B000A3010008A3010008A3010008A301000890
:1000C000A3010008A3010008A3010008A301000880
:1000D000A3010008D91E0008E51E0008A3010008BE
:1000E000A3010008A3010008A301000800F002F822
:1000F00000F03AF80AA090E8000C82448344AAF188
:100100000107DA4501D100F02FF8AFF2090EBAE885
:100110000F0013F0010F18BFFB1A43F0010318473B
:10012000942B0000B42B0000103A24BF78C878C18B
:10013000FAD8520724BF30C830C144BF04680C60ED
:10014000704700000023002400250026103A28BF35
:1001500078C1FBD8520728BF30C148BF0B60704739
:100160001FB51FBD10B510BD00F07AF81146FFF79E
:10017000F7FF02F0BFF800F098F803B4FFF7F2FFC2
:1001800003BC00F09FF80000094880470948004779
:10019000FEE7FEE7FEE7FEE7FEE7FEE7FEE7FEE737
:1001A000FEE7FEE704480549054A064B7047000094
:1001B000171A0008ED0000087002002070080020E7
:1001C00070040020700400204FF000020429C0F0E9
:1001D000128010F0030C00F01B80CCF1040CBCF179
:1001E000020F18BF00F8012BA8BF20F8022BA1EBCB
:1001F0000C0100F00DB85FEAC17C24BF00F8012BB0
:1002000000F8012B48BF00F8012B70474FF00002A7
:1002100000B5134694469646203922BFA0E80C50FC
:10022000A0E80C50B1F12001BFF4F7AF090728BFD7
:10023000A0E80C5048BF0CC05DF804EB890028BF53
:1002400040F8042B08BF704748BF20F8022B11F07C
:10025000804F18BF00F8012B7047704770477047F8
:10026000754600F02BF8AE4605006946534620F06F
:100270000700854618B020B5FFF794FFBDE8204081
:100280004FF000064FF000074FF000084FF0000B52
:1002900021F00701AC46ACE8C009ACE8C009ACE805
:1002A000C009ACE8C0098D46704710B50446AFF3ED
:1002B00000802046BDE81040FFF75FBF0048704750
:1002C0000C02002001491820ABBEFEE72600020008
:1002D0007047000010B50021074800F0E3FE04213C
:1002E000054800F0DFFE5A2001F0E4FFBDE81040B1
:1002F000002001F0EFBF00005C000020FEE70000DE
:1003000010B50021104800F0CDFE04210E4800F089
:10031000C9FE08210C4800F0C5FE0C210A4800F077
:10032000C1FE0021094800F0BDFE0421074800F08D
:10033000B9FE0821054800F0B5FEBDE810400C21CB
:10034000024800F0AFBE0000A4000020EC00002036
:10035000704772B6FEE70000034900220B685A633B
:100360000968886370470000EC00002003490A68B0
:10037000506309680020886370470000EC0000208B
:1003800003490A68D06309680020086470470000C8
:10039000EC000020034900220B68DA630968086456
:1003A00070470000EC00002010B590F821100022EA
:1003B000022905D00421816380F82020012010BD8E
:1003C00001680B6823F00E030B6001680B6823F0D3
:1003D00001030B6090F84030C46B012101FA03F374
:1003E000636080F8211080F82020104610BD0000C6
:1003F00010B590F821100024022903D00421816354
:1004000001243DE001680A6822F00E020A600168DA
:100410000A6822F001020A601A4A0168914201D179
:10042000012121E0174A1432914201D110211BE031
:10043000144A2832914201D1891515E0114A3C3203
:10044000914201D189140FE00E4A5032914202D1FB
:100450004FF4803108E00B4A6432914202D14FF4EC
:10046000801101E04FF08071064A083A5160012185
:1004700080F82110002180F82010416B01B18847DD
:10048000204610BD0800024070B5044600F0FEF89A
:100490000546601C02D004480078044400F0F6F8D9
:1004A000401BA042FAD370BD100000202DE9F84F88
:1004B000DFF8B8910024A9F1040B23460F2709F1B6
:1004C000040AABF1040EC9E00125A5402A40AA4266
:1004D0007DD1674ED1F804C0ACEB0608B44532D0EC
:1004E00014DCBCF1030F3AD009DCBCF1000F2AD0B8
:1004F000BCF1010F1CD0BCF1020F31D11DE0BCF1E9
:10050000110F17D0BCF1120F2AD119E0B8F5881FCE
:1005100019D006DCB8F5803F15D0B8F5801F1FD183
:1005200011E0B8F5001F0ED0B8F5041F18D10AE08D
:10053000CB6815E0CB681B1D12E0CB6808330FE0D9
:10054000CB680C330CE08B682BB1012B4FF0080308
:1005500003D0456104E0042302E0056100E00023CC
:10056000FF2A01D8064601E000F104064FEA84059F
:1005700001D9A5F12005D6F8008007FA05FC28EA84
:100580000C0803FA05F548EA0508C6F800804D682E
:10059000ED0062D5374DAE6946F00106AE61AD693A
:1005A00024F0030605F001050095334D06EB050C1C
:1005B000DCF80850A607360F07FA06F825EA080502
:1005C000DFF8B880404503D14FF0000817E044E061
:1005D000DFF8AC80404502D14FF001080FE0DFF8B2
:1005E000A480404502D14FF0020808E0DFF898806F
:1005F000404502D14FF0030801E04FF0040808FA2B
:1006000006F848EA0508CCF808804D68D9F800607B
:10061000ED024D4601D5164300E096432E604D682D
:10062000DAF80060AD02554601D5164300E0964366
:100630002E604D68DBF80060AD035D4601D51643C2
:1006400000E096432E604D68DEF80060ED037546CD
:1006500001D5164300E096432E60641C0D682A46BF
:10066000E5407FF431AFBDE8F88F00000804014099
:10067000000011100010024000000140000801407D
:10068000000C014000100140001401400148806846
:100690007047000010000020024881680278114471
:1006A0008160704710000020074810B5016841F0D4
:1006B00010010160032000F075F80F2000F006F82B
:1006C00000F024F8002010BD0020024070B50D4D50
:1006D00004464FF47A712878B1FBF0F00A490968B2
:1006E000B1FBF0F000F0DCFA48B9102C07D2002280
:1006F0002146501E00F036F800206C6070BD0120CD
:1007000070BD0000100000201C0000200C4808B53F
:10071000816941F001018161816901F0010100916C
:10072000C16941F08051C161C06900F08050009002
:100730000448416821F0E06141F00071416008BD6A
:100740000010024000000140002809DB00F01F02F9
:10075000012191404009800000F1E020C0F8001123
:1007600070470000F0B40E4B1B680C46C3F3022325
:10077000C3F10705042D00D90425191D072901D24D
:10078000002300E0DB1E012606FA05F1491E214088
:1007900099409E40761E16403143F0BC01F0A9BB43
:1007A0000CED00E0064900F0070208684FF6FF0371
:1007B000184040EA0220034A1043086070470000D6
:1007C0000CED00E00000FA052DE9F0470F460500AA
:1007D00061D0434E306800F00700B84209D230685B
:1007E00020F0070038433060306800F00700B8425E
:1007F00051D128683B4C810712D5400703D560686A
:1008000040F4E06060602878000703D5606840F439
:10081000605060606068A96820F0F0000843606084
:100820002878C00728D06868012810D021680228DD
:1008300010D0890700292EDA616821F003010143F5
:100840006160FFF723FF804641F288390DE021689F
:100850008903EFE78901EDE7FFF718FFA0EB080137
:10086000494502D90320BDE8F0876068696800F057
:100870000C00B0EB810FEFD1306800F00700B842F8
:100880000BD9306820F0070038433060306800F042
:100890000700B84201D00120E5E72878400705D5D8
:1008A0006068E96820F4E060084360602878000729
:1008B00006D56068296920F4605040EAC100606094
:1008C00000F038F86168084AC1F30311515CC84070
:1008D0000649086006480068FFF7F8FE0020C2E7F6
:1008E00000200240001002409A2C00081C0000204A
:1008F000140000200448054900684968044AC1F30F
:100900000221515CC84070471C00002000100240CA
:10091000AA2C00080448054900684968044AC1F344
:10092000C221515CC84070471C00002000100240EA
:10093000AA2C00080E4A51680E4801F00C03042B43
:1009400011D0082B0FD10C48C1F38343C903C05CFD
:100950000AD55168084AC1F34041921E515C054ACC
:100960005043B0FBF1F07047044948437047000022
:100970000010024000127A008A2C000800093D0095
:100980002DE9F84F040070D02078C04DC00749D041
:100990006868C0F38100012807D06868C0F381004F
:1009A000022809D16868C00306D52868800339D5B4
:1009B00060680028E7D035E06068B0F5803F0BD074
:1009C00010B1B0F5A02F11D0286820F48030286035
:1009D000286820F4802002E0286840F480302860F5
:1009E000606890B1FFF752FE06460AE0286840F4BE
:1009F00080202860F0E700BFFFF748FE801B6428D6
:100A000073D828688003F7D50CE0FFF73FFE064651
:100A100005E000BFFFF73AFE801B6428F0D8286885
:100A20008003F7D420789A4E80074FF001094FF0E9
:100A3000000839D5686810F00C0F07D06868C0F35B
:100A40008100022809D16868C00306D4286880079D
:100A500014D52069012808D110E02069B0B1C6F88A
:100A60000090FFF713FE074605E00AE1FFF70EFED0
:100A7000C01B0228C4D828688007F7D52868616998
:100A800020F0F80040EAC10028600DE0C6F80080C0
:100A9000FFF7FCFD074604E0FFF7F8FDC01B022846
:100AA00023D828688007F7D4207800072CD5794808
:100AB000A169D9B1C0F80090FFF7E8FD074604E04E
:100AC000FFF7E4FDC01B02280FD8686A8007F7D53E
:100AD00071484FF4FA510068B0FBF1F0009000BF8C
:100AE0000098411E0091FAD20EE080E0C0F800802C
:100AF000FFF7CCFD074604E0FFF7C8FDC01B022846
:100B000075D8686A8007F7D42078400760D5E8690F
:100B10000027C00008D4E86940F08050E861E86927
:100B2000012700F0805000905C480168C90513D48B
:100B30000168834641F480710160FFF7A7FD82469A
:100B400006E000BFFFF7A2FDA0EB0A0064284ED824
:100B5000DBF80000C005F5D5E06801280AD008B12F
:100B6000052813D0286A20F001002862286A20F0A6
:100B7000040002E0286A40F001002862E06841F2C7
:100B8000883B98B1FFF782FD82460BE0286A40F06F
:100B900004002862EEE700BFFFF778FDA0EB0A0132
:100BA00059455AD8286A8007F6D50CE0FFF76EFD44
:100BB000824605E0FFF76AFDA0EB0A0159454CD8D3
:100BC000286A8007F6D41FB1E86920F08050E861F8
:100BD000E06988B36968C1F38101022944D0022821
:100BE000C6F8608004D0FFF751FD044638E034E0D9
:100BF000FFF74CFD074604E0FFF748FDC01B022845
:100C00002BD828688001F7D4206AB0F5803F05D141
:100C10006868A16820F4003008436860D4E90801DE
:100C20000843696821F4741108436860C6F860904D
:100C3000FFF72CFD044606E025E000BFFFF726FD88
:100C4000001B022809D828688001F7D51BE000BFE7
:100C5000FFF71CFD001B022802D90320BDE8F88F16
:100C600028688001F4D40EE00128F7D06868226A71
:100C700000F48031914204D1616A00F4701088421E
:100C800001D00120EAE70020E8E700000010024060
:100C900000004242800442421C00002000700040DC
:100CA00010B5401EB0F1807F01D3012010BD4FF080
:100CB000E02460610F21601701F01BF90020A061A2
:100CC00007202061002010BD70B590F83C20012A5B
:100CD00026D0012480F83C40022280F83D200368A1
:100CE0005A689D6822F070060A6832435A600D4BBC
:100CF00002689A4208D0B2F1804F05D00A4B9A425E
:100D000002D00A4B9A4204D1496825F08003194366
:100D1000916080F83D40002180F83C10084670BD8D
:100D2000022070BD002C014000040040000800407B
:100D300010B5040003D094F83D0010B107E0012085
:100D400010BD002084F83C00204600F01FF802206F
:100D500084F83D00211D206800F05EFE012084F82B
:100D6000460084F83E0084F83F0084F8400084F890
:100D7000410084F8420084F8430084F8440084F879
:100D8000450084F83D00002010BD000008B5016852
:100D90001148B1F1804F0BD0104A914210D1C16976
:100DA00041F00201C161C06900F00200009008BD7D
:100DB000C16941F00101C161C06900F00100F5E7BE
:100DC000074A9142F3D1C16941F00401C161C06990
:100DD00000F00400EAE700000010024000040040B8
:100DE0000008004070B5044690F83C00002501283A
:100DF00017D0012684F83C60022084F83D0020686A
:100E0000826822F0770222F47F42826008685028CC
:100E100038D00DDC20284FD005DC90B3102811D13C
:100E20004AE0022070BD302846D040280AD13BE07D
:100E300060282FD070280DD0B0F5805F03D0B0F5BA
:100E4000005F12D0012584F83D60002084F83C004A
:100E5000284670BDCB68D1E90121206800F01FFE53
:100E60002068816841F0770109E0CB68D1E9012170
:100E7000206800F014FE2068816841F480418160A0
:100E8000E1E719E0CA684968206800F0BDFE50211A
:100E9000206806E0CA684968206800F0C6FE602144
:100EA000206800F006FECEE7CA684968206800F0B6
:100EB000ABFE40212068F4E7226801461046F0E7C7
:100EC00070B586B0002100910191029103910068F4
:100ED000254903250224254AB0F1804F1ED0244B1A
:100EE000244E98422CD1886940F0040088618869BA
:100EF00000F004000490886940F008008861886967
:100F0000694600F008000490C020CDE900041046B6
:100F10000394FFF7CBFACDE9005420E0886940F054
:100F2000040088618869CDE9005400F00400CDE92F
:100F3000034069464FEA0200FFF7B8FA06B070BDF9
:100F40000D4A9042FAD1886940F0080088618869AA
:100F500000F0080004904FF47070CDE90004694679
:100F600030460394E8E7000000100240000801400A
:100F700000040040000C01400008004070B5044629
:100F800090F83C0000260D4601280FD0012084F87F
:100F90003C006AB1042A1DD0082A2FD00C2A3FD069
:100FA0000126002084F83C00304670BD022070BD50
:100FB000206800F087FD2068816941F008018161A7
:100FC0002068816921F004018161206881692A69B2
:100FD000114311E0206800F09DFD2068816941F413
:100FE000006181612068816921F4806181612068EC
:100FF00081692A6941EA02218161D2E7206800F013
:10100000B5FD2068C16941F00801C1612068C1696E
:1010100021F00401C1612068C1692A69114311E00E
:10102000206800F0CFFD2068C16941F40061C16112
:101030002068C16921F48061C1612068C1692A69A1
:1010400041EA0221C161ACE710B5040003D094F875
:101050003D0010B107E0012010BD002084F83C00E5
:10106000204600F01EF8022084F83D00211D206873
:1010700000F0D2FC012084F8460084F83E0084F899
:101080003F0084F8400084F8410084F8420084F86E
:10109000430084F8440084F8450084F83D000020B3
:1010A00010BD704710B50446022249B104290ED084
:1010B000082913D094F84100012816D0012010BD52
:1010C00094F83E000128F9D184F83E200FE094F80E
:1010D0003F000128F2D184F83F2008E094F8400056
:1010E0000128EBD184F8402001E084F8412001225E
:1010F000206800F0C7FC0F492068884203D1426C89
:1011000042F4004242642068884208D0B0F1804F27
:1011100005D00949884202D00849884204D1816833
:1011200001F00701062903D0016841F001010160C7
:10113000002010BD002C01400004004000080040C9
:1011400070477047F8B5016804460868CA684B697B
:1011500010F00F0F4FF0000559D003F0010602F414
:101160009077374365D0C10705D0D10503D5616CB1
:1011700041F001016164410705D5D90703D0616CD5
:1011800041F002016164810705D5D90703D0616C84
:1011900041F004016164010707D502F020013143E9
:1011A00003D0616C41F008016164616C00293AD0A0
:1011B000800604D5900602D5204600F077FD206811
:1011C0004069616CC0F38010090700D460B3204609
:1011D00000F045FD20684069400621D520681430A4
:1011E00050E8001F21F0400140E80012002AF5D12C
:1011F000E06BA8B16D494163E06BFFF7F9F8002897
:1012000011D0E06B416B01B0BDE8F04008478306A8
:101210000FD593060DD52046BDE8F84000F046BD39
:101220002046FFF78EFFF8BD2046FFF78AFF656472
:10123000F8BD266B2023012E7CD1C6067AD5D606B2
:1012400078D508684868009048694FF00206400663
:1012500040D5E16B086840680004000CE8D0A28D1E
:101260008242E5D9E085886920282DD020680C309D
:1012700050E8001F21F4807140E80012002AF5D1E7
:101280002068143050E8001F21F0010140E80012EE
:10129000002AF5D12068143050E8001F21F04001E9
:1012A00040E80012002AF5D184F842302563206816
:1012B0000C3050E8001F21F0100140E80012002A15
:1012C000F5D1E06BFFF770F86663A08DE18D401AF1
:1012D00081B22AE0A08DE18D401A81B2E08D002814
:1012E000A6D00029A4D022680C3252E8000F20F4C6
:1012F000907042E80007002FF5D12068143050E8C4
:10130000002F22F0010240E80027002FF5D184F8D9
:101310004230256320680C3050E8002F22F0100284
:1013200040E80023002BF5D166632046FFF708FF55
:10133000F8BDFFE705062BD5150629D594F8410021
:101340002128F5D1A068B0F5805F01D12069B0B146
:10135000206A411C2162216800784860E08C401EB0
:101360000004000CE084E3D12068C16821F0800112
:10137000C1602068C16841F04001C160D8E7206ABF
:101380000088C0F308004860206A801C2062E5E7FE
:101390004006CDD55006CBD5CA68204622F0400283
:1013A000CA6084F8413000F068F9C1E74F1C0008BA
:1013B00070B5040004D094F84100002510B106E097
:1013C000012070BD84F84050204600F023F824200E
:1013D00084F841002068C16821F40051C1602046B2
:1013E00000F0C6FC2068016921F490410161206889
:1013F000416921F02A0141612068C16841F400512E
:10140000C1606564202084F8410084F8420065636F
:10141000002070BDF0B585B00024009401940294C2
:10142000039403683F4F02203F4903223F4D460289
:10143000BB4225D18B6943F480438B618B6903F4F4
:10144000804304938B6943F004038B6189690392A1
:1014500001F0040104910102CDE90010694628461B
:10146000FFF724F8CDE90064694628460294FFF7A7
:101470001DF8002211462520FFF774F9252028E0E9
:101480002B4FBB4229D1CB6943F40033CB61CB69ED
:1014900003F4003304938B6943F004038B6189697F
:1014A000039201F0040104910421CDE90010694682
:1014B0002846FEF7FBFF0820CDE9000469462846D0
:1014C0000294FEF7F3FF002211462620FFF74AF9A7
:1014D0002620FFF739F905B0F0BD164DAB42FAD121
:1014E000CB6943F48023CB61CB6903F4802304935D
:1014F0008B6943F008038B6189690F4D01F0080186
:10150000CDE90321CDE9006069462846FEF7CEFF0C
:10151000E814CDE90004694628460294FEF7C6FFA8
:10152000D9E70000003801400010024000080140E7
:101530000044004000480040000C014090F8423058
:10154000202B01D00220704721B11AB10023036380
:1015500000F06ABC0120704770B51D4900251D4C84
:10156000884215D16178E078491CCAB21A49627084
:101570007D28885407D1084600F020FE1E21164819
:10158000FEF722FE657013490122C91C104819E0BC
:10159000124988421AD1A1782079491CCAB20E4951
:1015A000A2701E317D28885408D1084600F0A8FD9D
:1015B00009481E211E30FEF707FEA57005490122CD
:1015C0000648091DBDE87040FFF7B8BF70BD0000B8
:1015D0003401002000000020200000207C010020B9
:1015E0002DE9F843044690F841001F4616460D4683
:1015F000202802D00220BDE8F8837DB176B100201A
:101600006064212084F84100FFF740F8A6848046FA
:10161000E684A068B0F5805F02D003E00120EAE72D
:10162000206910B12E4600250EE000260CE0802136
:10163000204600F014FCA0B9AEB116F8010B2168E9
:101640004860E08C401EE084E08C43464FF000028E
:1016500000970028EBD14FF04001204600F0FFFB3F
:1016600030B10320C7E735F8020BC0F30800E6E706
:10167000202084F841000020BDE77047FEE700000D
:101680000D4808B5816941F020018161816901F04F
:1016900020010091816941F004018161816901F0BB
:1016A00004010091816941F008018161806900F0C5
:1016B0000800009008BD00000010024010B58EB078
:1016C00000240794089409940A940B941C216846FA
:1016D0000C94FEF79BFD24484FF08041016040F2DE
:1016E000CF21C0E9011440F2CF71C0E90314802179
:1016F0008161FFF71DFB08B1FEF72BFE4FF4805010
:10170000079007A91848FFF76DFB08B1FEF721FE07
:101710001548FFF799FC08B1FEF71BFE0B940BA9C7
:1017200011480C94FFF7D0FA08B1FEF712FE6020C2
:1017300000906420CDE90104002269460A4804941F
:10174000FFF71CFC08B1FEF704FE322001900422D2
:1017500069460548FFF712FC08B1FEF7FAFD02489A
:10176000FFF7AEFB0EB010BD5C00002010B58EB0D0
:1017700000240794089409940A940B941C21684649
:101780000C94FEF743FD2B48294901604721C0E92D
:10179000011440F2E731C0E9031480218161FFF7B1
:1017A000C7FA08B1FEF7D5FD4FF48050079007A99E
:1017B0002048FFF717FB08B1FEF7CBFD1D48FFF7E8
:1017C00043FC08B1FEF7C5FD0B940BA919480C9416
:1017D000FFF77AFA08B1FEF7BCFD6020CDE90004FE
:1017E00002940022694613480494FFF7C7FB08B12E
:1017F000FEF7AFFD042269460E48FFF7BFFB08B1B4
:10180000FEF7A7FD082269460A48FFF7B7FB08B1B3
:10181000FEF79FFD0C2269460648FFF7AFFB08B1B3
:10182000FEF797FD0348FFF74BFB0EB010BD00001D
:1018300000040040A400002010B58EB000240794DE
:10184000089409940A940B941C2168460C94FEF7A2
:10185000DDFC2B48294901604721C0E9011440F211
:10186000E731C0E9031480218161FFF761FA08B113
:10187000FEF76FFD4FF48050079007A92048FFF74F
:10188000B1FA08B1FEF765FD1D48FFF7DDFB08B1B1
:10189000FEF75FFD0B940BA919480C94FFF714FA9F
:1018A00008B1FEF756FD6020CDE900040294002245
:1018B000694613480494FFF761FB08B1FEF749FD40
:1018C000042269460E48FFF759FB08B1FEF741FDB7
:1018D000082269460A48FFF751FB08B1FEF739FDB7
:1018E0000C2269460648FFF749FB08B1FEF731FDB7
:1018F0000348FFF7E5FA0EB010BD000000080040F5
:10190000EC0000200C4810B50A4901604FF4165154
:101910004160002181600C22C160C0E90412816134
:10192000C161FFF745FD002803D0BDE81040FEF778
:1019300010BD10BD00380140340100200C4810B526
:101940000A4901604FF416514160002181600C2268
:10195000C160C0E904128161C161FFF729FD00285F
:1019600003D0BDE81040FEF7F4BC10BD00440040B9
:101970007C0100200C4810B50A4901604FF4E131A8
:101980004160002181600C22C160C0E904128161C4
:10199000C161FFF70DFD002803D0BDE81040FEF740
:1019A000D8BC10BD00480040C4010020FEE7FEE79F
:1019B00070477047FEF770BE30B58FB0282168467B
:1019C000FEF724FC14210AA8FEF720FC01210804DC
:1019D000CDE900100024029402250491CDE90750BE
:1019E0004FF4E01009906846FEF7CAFF08B172B6DE
:1019F000FEE70F20CDE90A054FF48060CDE90C40E9
:101A000002210AA80E94FEF7DFFE002801D072B66C
:101A1000FEE70FB030BD7047F0B50268164B174CAB
:101A2000174D4FF08047984205D0B84203D0A042EE
:101A300001D0A84203D122F070064A68324398428E
:101A400005D0B84203D0A04201D0A84203D122F46D
:101A50004074CA6822434C6922F08002224302602B
:101A60008A68C2620A688262984201D10969016388
:101A700001214161F0BD0000002C01400004004044
:101A80000008004010B501F01F030121046A9940CD
:101A90008C430462016A9A401143016210BD10B583
:101AA000846842EA032224F47F440A43224382608A
:101AB00010BD826822F070020A4342F00701816083
:101AC0007047000030B5036A026A22F00102026228
:101AD0004268846924F073050C682C4323F00205E6
:101AE0008B682B430A4DA8420BD123F00805CB6825
:101AF00022F440722B434D6923F0040315438A6995
:101B00002A434260846149684163036230BD00003A
:101B1000002C014030B5026A036A23F0100303620F
:101B2000436884690D6824F4E64444EA05248D681A
:101B300022F0200242EA05120B4DA8420ED1CD68D8
:101B400022F0800242EA05124D6923F4406343EA21
:101B500085038D6922F0400243EA85034360846176
:101B600049688163026230BD002C014030B5036AD0
:101B7000026A22F4807202624268C46923F400732C
:101B800024F073050C682C438D6843EA05230C4D43
:101B9000A8420ED1CD6823F4006343EA05234D69C2
:101BA00022F4405242EA05128D6923F4806342EA2E
:101BB00005124260C4614968C163036230BD000020
:101BC000002C014030B5046A026A22F4805202629D
:101BD0004268C3690D6823F4E64343EA05238D6830
:101BE00024F4005444EA0534064DA84204D14D695A
:101BF00022F4804242EA85124260C361496801646E
:101C0000046230BD002C014010B5036A046A24F060
:101C100001040462846924F0F00444EA021423F00D
:101C20000A020A438461026210BD10B5036A046AA5
:101C300024F010040462846923F0A00324F47044A7
:101C400044EA023243EA01118261016210BD10B51B
:101C5000406A0021C185C184FFF773FA10BD016895
:101C60000C3151E8002F22F4907241E80023002B40
:101C7000F5D10168143151E8002F22F0010241E84A
:101C80000023002BF5D1016B012909D101680C312A
:101C900051E8002F22F0100241E80023002BF5D17B
:101CA000202180F8421000210163704708B590F8A8
:101CB0004210222901D0022008BD82684FF48053CF
:101CC0009A4201D1016921B1816A9A421BD04AB17D
:101CD0000AE00268816A5268C2F308020A80816AD7
:101CE000891C08E0026972B10268526802F07F0242
:101CF0000A70816A491C8162C18D491E0904090C60
:101D0000C18503D01BE002685268F1E70168CA6828
:101D100022F02002CA600168CA6822F48072CA6098
:101D200001684A6922F001024A61202180F84210CC
:101D300000214163026B012A03D0FFF70DFC002054
:101D400008BD016301680C3151E8002F22F0100238
:101D500041E80023002BF5D101680A68D20602D5BC
:101D60000A6849680091818DFFF7EAF9E7E700000A
:101D700070B5044600680169E26821F440511143DE
:101D800001612169A0680843616908432168CA6844
:101D900041F20C639A430243CA6020684169A26918
:101DA00021F44071114341611E492068884202D1EB
:101DB000FEF7B0FD01E0FEF79DFD00EBC00101EB79
:101DC0000012606864218000B2FBF0F3B3FBF1F312
:101DD0006FF018067343B2FBF0F5B2FBF0F605EBBB
:101DE0008305322303EB0515B5FBF1F5B6FBF1F6E0
:101DF00005F0F00505EB0615B2FBF0F6B2FBF0F0CE
:101E0000B0FBF1F06FF01802504306EB800003EBDB
:101E10000010B0FBF1F0216800F00F00284488604A
:101E200070BD00000038014081628285C2850021BA
:101E30004164222180F84210016921B10168CA6819
:101E400042F48072CA6001684A6942F001024A6144
:101E50000068C16841F02001C160002070472DE991
:101E6000F041984617460E460446069D27E0681C3A
:101E700025D02DB1FEF70AFCA0EB0800A8421ED920
:101E800020680C3050E8001F21F4D07140E80012A7
:101E9000002AF5D12068143050E8001F21F001011C
:101EA00040E80012002AF5D1202084F8410084F88F
:101EB0004200002084F840000320BDE8F081206843
:101EC000006836EA000004D00020B842CFD00020DD
:101ED000F3E70120F9E700000148FFF733B90000FC
:101EE000340100200148FFF72DB900007C010020DB
:101EF000FEE70907090E002804DB00F1E02080F866
:101F00000014704700F00F0000F1E02080F8141D6D
:101F100070470000114A10B5136818181060536814
:101F200019444FF00003516001D513600BE0962473
:101F3000962801DD146006E0002901DA536002E012
:101F4000962900DD5460108800B200F0B3F9908843
:101F5000BDE8104000B200F0BDB90000080000204C
:101F6000034900220B68DA630968086470470000BF
:101F7000A400002003490A68D063096800200864AF
:101F800070470000A400002003490A6850630968F4
:101F90000020886370470000A4000020034900224D
:101FA0000B685A630968886370470000A40000202A
:101FB00010B50A4900F09CFD00F062FD84B2204695
:101FC000FEF7DEF92046FEF7C7F92046FFF7DCFFF3
:101FD0002046BDE81040FFF7C3BF0000000002C369
:101FE00010B50A4900F084FD00F04AFD84B2204695
:101FF000FEF7D0F92046FEF7B9F92046FFF7CEFFED
:102000002046BDE81040FFF7B5BF000000000243C6
:1020100010B50A4900F06CFD00F032FD84B2204694
:10202000FEF7B8F92046FEF797F92046FFF7ACFF18
:102030002046BDE81040FFF79DBF000000000243AE
:1020400010B50A4900F054FD00F01AFD84B2204694
:10205000FEF796F92046FEF789F92046FFF79EFF26
:102060002046BDE81040FFF77BBF0000000002C320
:1020700010B50A4900F03CFD00F002FD83B218469D
:10208000FEF77EF91846FEF771F91846FFF77CFF58
:10209000BDE810401846FFF76DBF00000000024386
:1020A00010B50A4900F024FD00F0EAFC84B2204695
:1020B000FEF770F92046FEF74FF92046FFF76EFF56
:1020C0002046BDE81040FFF74BBF0000000002C3F0
:1020D000094900200A68D0630A6810640A685063DE
:1020E0000968886305490A68D0630A6810640A6849
:1020F0005063096888637047A4000020EC0000204A
:10210000134A0021535C491CC9B27B2BFAD1405CB5
:10211000104958B101280DD002280FD0032811D042
:10212000042813D108700CA000F084B900200870B6
:102130000EA0F9E70120087011A0F5E70220087051
:1021400014A0F1E70320087017A0EDE77047000026
:102150003E0000200000002070616765207061670C
:10216000655F446F63746F72FFFFFF0070616765A6
:10217000206665617475726573FFFFFF00000000E3
:102180007061676520706167655F504363746CFFC1
:10219000FFFF00007061676520706167655F5461D3
:1021A0006C6BFFFFFF000000706167652070616766
:1021B000655F5761746368FFFFFF000070B5364AC2
:1021C0000021535C491CC9B27B2BFAD1425C012A25
:1021D0000AD0022A44D0032A05D130A000F02AF9FF
:1021E00033490020087070BD4618707800F034F94B
:1021F0000546B07800F030F90446F07800F02CF98C
:1022000010F0FF4F4FF4000105D0884224DBBDE8F9
:102210007040FFF72DBF15F0FF4F06D08D422846C6
:1022200016DBBDE87040FFF7DBBE8C4204DB2046C6
:10223000BDE87040FFF7ECBE14F1FF4F04D3204619
:10224000BDE87040FFF7FCBEBDE87040FFF740BF3F
:10225000BDE87040FFF7ACBEBDE87040FFF720BF9F
:102260004418607800F0F8F800F0EEFB00F028FC6D
:102270000546A07800F0F0F800F0E6FB00F020FC46
:1022800000F0E2FB0446284600F0DEFB2146BDE8F4
:102290007040FFF73FBE00002000002070616765BE
:1022A000206665617475726573FFFFFF00000000B2
:1022B00000000020411E952909D2B4214843C821BD
:1022C00090FBF1F00249323000B209684863704770
:1022D0005C000020411E952909D2B4214843C82141
:1022E00090FBF1F00249323000B209688863704710
:1022F0005C000020FEF7D8F9FFF75EFBFFF7C0F99E
:10230000FFF7DCF9FFF732FAFFF7FCFAFFF716FBED
:10231000FFF792FAFFF72EFB00F022F8FDF7F0FF2F
:10232000FDF7D8FF4FF47A7500242846FEF7ACF885
:102330002846FEF7A9F8641CE4B21E2CF8D303A0CB
:1023400000F078F800F028F8FCE70000706167659D
:10235000206665617475726573FFFFFF0000000001
:1023600010B5012207490848FFF7E8F8054901229E
:10237000491C0648FFF7E2F8BDE8104004A000F051
:1023800059B8000003000020340100207C01002027
:1023900000FFFFFF0000000010B54FF49670FEF73D
:1023A00073F80B480078052811D2DFE800F0030528
:1023B00007090B0007A006E009A004E00BA002E05B
:1023C0000DA000E00FA0BDE8104000F021B810BD46
:1023D00000000020706167653A300D0A00000000BF
:1023E000706167653A310D0A000000007061676531
:1023F0003A320D0A00000000706167653A330D0A39
:1024000000000000706167653A340D0A00000000AA
:1024100070B5054600242919642301220448FFF7FA
:10242000DFF8641CE4B2285D0028F4D170BD000020
:102430003401002070B505460024291964230122C7
:102440000448FFF7CDF8641CE4B2285D0028F4D1FD
:1024500070BD00007C0100202DE9F041C509C0F3EA
:10246000021600F00F0000F0F3F80A4A0A4B00F0E1
:1024700003F907460C46304600F0EAF83A46234690
:1024800000F03EF800F00AF8002D01D080F0004086
:10249000BDE8F0819A9999999999B93F21F0004244
:1024A000A2F16052B2F5801F01F0004328BFD2F1C3
:1024B0007F6C0BD95FEA001C43EAC20242EB50700A
:1024C00018BF704728BF20F001007047B2F5801F89
:1024D000BCBF184670474FEA410C1CF5001F02D2E2
:1024E000084600F0CCBB70B500F070F90000008920
:1024F000FFF7F6BF4FF00040A0F5800070470000E6
:1025000010B591EA030F48BF83F0004300F1BA8190
:10251000841A71EB030C05D2121943EB0C03001B58
:1025200061EB0C01DFF824E14FEA1154A4EB135CDA
:102530001EEA430F18BF9EEA445F73D023EA0E03DE
:10254000DCF1200E21EA045143F4801332D322FA45
:102550000CFE10EB0E0023FA0CFE41EB0E01CCF149
:10256000200E03FA0EFE10EB0E0051F10001B1F542
:10257000801FCCF1200E32D201EB045112FA0EF280
:10258000BDE8104058BF7047401C38BF5FEA4202A8
:1025900018BF7047002814BF20F0010041F100016E
:1025A0004FEA410313F5001F38BF7047A1F1C04146
:1025B00000F05AB9012A43EB0302ACF1200CDCF124
:1025C0001F0E32BF4FF0000E23FA0CF310EB030086
:1025D00041EB0451B4EB115FD0D0A1EB045101F5F4
:1025E000801149085FEA300001EB04510ED350F12D
:1025F000000038BF12FA0EFE08D1BDE81040C9E74E
:10260000401C38BF5FEA4202CAD1C3E7BDE81040B0
:102610004FEA410313F5001F38BF7047A1F1C041D5
:1026200000F022B99EEA445F08D011EA5E0FBDE8CF
:10263000104004BF01F0004100207047BDE8104089
:1026400070B500F0C3F800BF64FBBE3E0000E0FFC1
:10265000B0FA80F310FA03F10AD0C3F11D0303F5B9
:1026600080634FEA41504FEA035202EBD121704799
:102670004FF0000070470000DFF848C170B51CEA59
:10268000111E1EBF1CEA13159EEA0C0F95EA0C0FD3
:1026900000F06F8081EA030423EA4C134EEAD47EF3
:1026A00021EA4C1141F4801143F48013AE44A1FBA4
:1026B000024CA0FB0365AEF17F7E361955EB0C058D
:1026C000A1FB034C4CF10003A0FB021C16EB0C0613
:1026D000654153F10003094218BF46F0010613F4A7
:1026E000007F0BD14FEA03314FEA0530340341EA52
:1026F000155140EA16506FF003020AE04FEAC32179
:102700004FEAC520F40241EA555140EA56506FF0B5
:10271000020202EB2E4201EB025585EACE710AD08D
:102720005FEA440C18BF24F0004450F1000041F16E
:10273000000120EAD47040F2FE7C624500D270BDF8
:10274000A84214BF4FF080444FF04044002E08BF11
:102750000024BEF1806FA8BFA1F1C041BDE8704068
:1027600080F282804FF0000001F1C04101F0004191
:1027700070479EEA0C0F0CEA131518BF95EA0C0F70
:1027800006D04FF0000081EA030E0EF0004170BD4C
:1027900000F01CF88900013E00F007B800F009B80D
:1027A0004FEA430C5FEA5C5C08D081EA030100F069
:1027B0005BB84FEA410C5FEA5C5CF6D14FF0000079
:1027C000014970470000FF070000F87F0EF1020E7C
:1027D0002EF0030E5EF8046B364205D4012A43EB5B
:1027E000030515F5001F12D8012841EB010C1CF55B
:1027F000001F0CD80ED14FEAD17C15F5001F0CEB51
:102800004C0C0CF1020C08BF4CEBD37C04E04FF0F5
:10281000080C01E04FEAD37C0CEB4C0526FA05F6D8
:1028200006F00706B6F1040C06D20EEB860CBDE8E6
:1028300070404CF0010C6047DFE80CF0090B02021D
:102840004FF000414FF00000A1F5002170BD194686
:102850001046012851EB010418BFD4F5001484BFC1
:10286000002001F0004170BD0808A0F500114FEAFA
:102870003101704710B591EA030F48BF83F0004360
:102880003FF546AE841A71EB030C07D212198CF097
:10289000004C43EB0C03001B61EB0C01DFF8A4E1DF
:1028A0004FEA1154A4EB135C1EEA430F18BF9EEAD3
:1028B000445F00F0B08023EA6E03524221EA0451E3
:1028C000C3EB6E0338BF5B1EDCF1200E25D322FA6A
:1028D0000CFE10EB0E0043FA0CFE41EB0E01CCF1A6
:1028E000200E03FA0EFE10EB0E0051F10001CCF1A8
:1028F000200E29D412FA0EF201EB0451BDE810406B
:1029000058BF7047401C1CBFB2F1004F70470028F1
:102910000CBF491C20F00100704712EB020E43EB84
:10292000030218BF4FF0010E4EEA4202ACF1200C38
:10293000DCF11E0E54D943FA0CFE10EB0E0051F1DF
:10294000FF31CCF11E0ED5D50EF1010E12FA0EFE9E
:10295000404141EB010101EB445C5FEA5C5C10D952
:1029600010EBDE7001EB045138BFBEF1004FBDE843
:10297000104018BF704700280CBF491C20F0010010
:10298000704730D24FEAD42C11F5001124F40064C2
:102990001BD0B1FA81F20B3AA41AA41ED2F1200383
:1029A000914030FA03F31943904001EBCC71002CB5
:1029B00001EB0451BDE81040A8BF704701F1C041D0
:1029C0004FF0000001F000417047B0FA80F310FAB8
:1029D00003F100D110BDE41A173C4805C90AE4E729
:1029E00001EB045110BD491001EB0451BDE810404A
:1029F0004FEA300002E04FF0000170474A0008BF84
:102A00000042F8D0B2F5001F28BF704701F0004126
:102A10004FF0000070479EEA445F07D011EA5E0F56
:102A2000BDE8104004BF002100207047BDE8104001
:102A300070B5FFF7CBFE00BF40DFF63E83F00041EC
:102A4000104670470000E0FF41000B0ED3F19E02DC
:102A500008D950F400034FEA032323FA02F048BFD9
:102A60004042704710B500F0C4F800BF499224807E
:102A7000002070476FF0004282EA2000704700009B
:102A8000C10DD1F19E0206DB4FEA002343F0004363
:102A900023FA02F07047004207D54FEA4001B1F136
:102AA000FE4F02D24FF00000704710B500F0A1F8C1
:102AB00049922480002070476FEA20007047000090
:102AC00010F0004148BF4042B0FA80F310FA03F220
:102AD000C3F19D030BD051EAC35101EB1220530601
:102AE00038BF704700F1010008BF20F001007047B7
:102AF0004FF47F0C1CEAD0121EBF1CEAD11392EADD
:102B00000C0F93EA0C0F00F0478090EA010F48BFCA
:102B100042F480724FF0004C4CEA00204CEA012154
:102B200002EB0302A0FB0113A2F50002002918BF6B
:102B300043F001035B0028BF4FEA330342EB22421C
:102B40005FEA132C4CEBC2502EBFBCEB436FB2F5C7
:102B50007C0F70474FEA036CBCF1004F08BF20F0B8
:102B60000100B2F57C0F38BF70470BD582F0FF0231
:102B700012F5803FC8BF704700F1C040D8BF00F0D9
:102B80000040704700F5000C5FEA4C0C48BF7047EE
:102B9000B0F1C04000F073B890EA010F0CEAD11315
:102BA00048BF42F48072624538BF634504D280EA70
:102BB000010000F00040704710B500F01AF800BFA7
:102BC0008900013E00F007B800F009B85FEA410C47
:102BD0005FEA1C6C08D080EA010000F050B85FEAA0
:102BE000400C5FEA1C6CF6D14FF00040A0F580006D
:102BF00070470EF1020E2EF0030E5EF8044B2442D5
:102C000004D44FEA4102B2F17F4F11D84FEA40039A
:102C1000B3F17F4F0CD80ED14FEAD07CB2F17F4F89
:102C20000CEB4C0C0CF1020C08BF4CEBD17C04E01B
:102C30004FF0080C01E04FEAD17C0CEB4C0324FA76
:102C400003F404F00704B4F1040C06D20EEB840C78
:102C5000BDE810404CF0010C6047DFE80CF00708BD
:102C600002024FF00040A0F5800010BD084642006F
:102C700018BFD2F1807288BF00F0004010BDFF2164
:102C800041EAD050C005704701020203040506075F
:102C900008090A0B0C0D0E0F1010000000000000B8
:102CA00000000102030406070809000000000102F9
:102CB00003040000D42C00080000002020000000C5
:102CC00028010008F42C0008200000205008000013
:102CD00044010008000000000000000000000000A7
:102CE00000000000010000001000000000000000D3
:042CF0000024F400C8
:04000005080000ED02
:00000001FF
